:100000000C9470020C942B280C948D020C948D028D
:100010000C948D020C948D020C948D020C948D0224
:100020000C948D020C948D020C948D020C948D0214
:100030000C948D020C9441290C948D020C948D0229
:100040000C94C0330C948D020C948D020C948D0290
:100050000C948D020C948D020C948D020C948D02E4
:100060000C948D020C948D023212351238123B1210
:100070003E124412411247124A1258145B145E1485
:10008000611464146A1467146D1470143F154215DA
:10009000451548154B154E155115541557155A153C
:1000A0005D15601567156A15437A79206E612070B9
:1000B00065776E6F2063686365737A207779637AFA
:1000C000799C6369E62077737A7973746B6965202C
:1000D000757374617769656E69613F00437A792051
:1000E0006E61207065776E6F2063686365737A2038
:1000F0007A6170697361E620757374617769656E02
:100100006961206E61206B617274EA2053443F0084
:10011000437A79206E61207065776E6F2063686323
:1001200065737A206F64637A797461E620757374FD
:10013000617769656E6961207A206B6172747920DC
:1001400053443F0050727A797772F3E62066616219
:100150007279637A6E65005A617069737A206E6194
:10016000206B617274EA2070616D69EA6369004F07
:1001700064637A7974616A207A206B617274792081
:1001800070616D69EA6369005A617069730057654F
:10019000727966696B2E004F64637A797400706FB0
:1001A0006D799C6C6E69650057796B6F6E616E6FCF
:1001B000006D61B36F2064616E79636800506C6993
:1001C0006B207A617769657261207A61006E69657A
:1001D0007564616E61005765727966696B61636A07
:1001E00061004272616B20706C696B750075BF793C
:1001F00077616AB9632046415433320053666F72A7
:100200006D6174756A206B617274EA006F64637A61
:10021000797475206B617274792053440042B3B9CC
:100220006420706F64637A617300737072F3627537
:100230006A20706F6E6F776E69650057B3F3BF20E9
:100240006B617274EA2053442069006B61727479A7
:1002500020534400496E69636A616C697A61636A1C
:100260006100647A776F6E656B2E326C6F00437A33
:10027000792063686365737A20726F7A706F637A2E
:10028000B9E6206E6F777920726F6B20737A6B6F8F
:100290006C6E793F004E6F7779206B616C656E6490
:1002A00061727A00437A79206E61207065776E6F93
:1002B0002063686365737A207573756EB9E6206490
:1002C0007A776F6E6B693F005779637A799CE600A5
:1002D000446F64616A20647A776F6E656B00427266
:1002E000616B00496E6E6500536B72F3636F6E65F0
:1002F000004E6F726D616C6E65004A7574726F00AE
:10030000447A697369616A006E69676479004F7342
:100310007461746E69612073796E6368726F6E695F
:100320007A61636A61006D696E0050727A657A0065
:100330004F20676F647A004E612070727A65727721
:10034000EA004E61206C656B636AEA006464006DCC
:100350006D0072727272006D6D006767005A617293
:100360007AB9647A616A20757374617769656E69B8
:10037000616D69004B616C656E6461727A005A6DE3
:100380006965F12070726F66696C0050726F666902
:100390006C652028676F647A696E7920647A776F5C
:1003A0006E6BF377290044B375676F9CE620647A1F
:1003B000776F6E6B610053796E6368726F6E697AE6
:1003C00061636A61207A20777A6F7263656D20635A
:1003D0007A617375204443463737004175746F6DF9
:1003E000617479637A6E61207A6D69616E612063F0
:1003F0007A61737500557374617720646174EA00E3
:10040000557374617720676F647A696EEA0047728A
:1004100075647A6965F1004C6973746F706164008A
:1004200050619F647A6965726E696B0057727A6574
:10043000736965F10053696572706965F1004C6913
:100440007069656300437A657277696563004D6121
:100450006A004B776965636965F1004D61727A6581
:1004600063004C75747900537479637A65F10057B1
:1004700079B3B9637A0057B3B9637A00437A656B8D
:10048000616A004F6B00416E756C756A005A61704D
:1004900069737A00506F7772F374004E6965005487
:1004A000616B004949204C4F204B69656C636500C6
:1004B0007573742E206661627279637A6E796368EF
:1004C0000050727A7977726163616E696500496E76
:1004D00069636A616C697A61636A612E2E2E00001D
:1004E00011241FBECFEFD8E0DEBFCDBF13E0A0E0E8
:1004F000B1E0E4E8FFE602C005900D92A23DB1072D
:10050000D9F727E0A2EDB3E001C01D92A330B207F6
:10051000E1F70E9452330C94C0370C940000519ABA
:10052000239A259A24982C9A089502D0599801C0AC
:10053000599A8FEF98E087FD2B9A87FF2B98880FA9
:100540001C9983952D9A2D989A95A9F708951F9334
:10055000CF93DF931F92CDB7DEB7182F862F9FE082
:100560009983BE016F5F7F4FFA010995598122ED92
:1005700033E0DC01F9019E2F921B951718F44D9181
:10058000411102C080E202C04193F5CF292F30E033
:10059000F901EE52FC4F9F3018F480839F5FF6CF35
:1005A000108242ED53E0612F81E00E946F310F9085
:1005B000DF91CF911F910895FC01138215828FEF77
:1005C000848362835183408326830895FC014381A1
:1005D000262F30E064130AC0428150E04150510997
:1005E00081E024173507D1F080E0089550E0CA017A
:1005F00001962817390779F002972817390769F407
:10060000228130E02150310981E04217530709F47B
:1006100080E08195089581E008958FEF0895FC01B1
:100620002281213049F0438150E030E021503109EE
:1006300081E04217530709F080E00895FC018381AF
:100640008F5F83839281891718F0138281E0089568
:1006500080E00895FC018381811105C08281815071
:10066000838381E008958150838380E00895FC01B5
:1006700063830895FC0113820895FC0122812150B7
:1006800023830895FC0183810895FC0182810895EC
:10069000FC0162838381861710F0615063830895A3
:1006A0002FEFFC0124830895AF92BF92CF92DF9287
:1006B000EF92FF920F931F93CF93DF9300D0CDB7AC
:1006C000DEB76C017B015801F8019081FB0110E05D
:1006D000012F090F141305C0F5018081882351F003
:1006E0000BC0D601A00FB11D8C918823A9F3819373
:1006F0001F5FEECF45E207C0F601E00FF11D8081DC
:100700008823C1F344E1822F2A8349830E94373131
:10071000498150E02A818417950778F0F601E00FAF
:10072000F11D8081F501882321F090819F5F9083E6
:1007300001C01082822F0E944D3120E2812F90E073
:10074000F701E80FF91F1F3018F420831F5FF6CF61
:1007500010820F900F90DF91CF911F910F91FF901A
:10076000EF90DF90CF90BF90AF900895DF92EF921F
:10077000FF920F931F93CF93DF931F92CDB7DEB7F6
:10078000D82E162F7A01DA0114968C9114976817D7
:1007900051F014966C93149715961C921597169613
:1007A0008C910E944D318FE08983D701ED91FC91AE
:1007B000BE016F5F7F4F812F099587010B5F1F4F30
:1007C000F7012681498162ED73E00E94540342EDF6
:1007D00053E06D2D81E00E946F310F90DF91CF913A
:1007E0001F910F91FF90EF90DF9008951F93CF938B
:1007F000DF93EC018A81813069F440E960E080E0B8
:100800000E94863140E261E080E00E9486311FEF65
:1008100060E022C02B8130E090E001972817390773
:1008200071F440E260E080E00E94863140E961E0DE
:1008300080E00E9486311B816FEF610F0DC040E99F
:1008400060E080E00E94863140E261E080E00E944A
:1008500086316B8111E0160F8B81681305C0AE01E4
:1008600080E00E94B60305C04881598180E00E9463
:10087000A7021F3FA1F08B81181308C0AE01612FA2
:1008800081E0DF91CF911F910C94B603488159818B
:10089000612F81E0DF91CF911F910C94A70242E07C
:1008A00051E061E081E0DF91CF911F910C946F31B5
:1008B0008150873048F4E82FF0E0EE0FFF1FE95D2C
:1008C000FE4F80819181089580E091E00895882312
:1008D00031F0813031F08F3F31F0815D08958EE449
:1008E000089583E5089587E90895882329F08130E4
:1008F00049F46BE974E002C06FE974E083EC96E0C0
:100900000E94ED3383EC96E00895CF93DF93CDB74B
:10091000DEB728970FB6F894DEBF0FBECDBF80FFBD
:100920001AC00E94AE2E9093EB038093EA0324E05A
:1009300045E754E062E083EE93E00E94DC02E09140
:10094000EA03F091EB0361E08381811160E083EEC3
:1009500093E00E94370383EE93E00E94F60361E088
:1009600081E00E9487308823F1F0E091EA03F09162
:10097000EB0388E0DE01119601900D928A95E1F774
:1009800083EE93E00E944203882321F0813021F41A
:100990001C8202C081E08C83CE0101960E94A02EB1
:1009A0000E942A3115C061E082E00E9487308823CE
:1009B00029F083EE93E00E941E030AC061E080E00C
:1009C0000E948730882321F083EE93E00E942A035F
:1009D00028960FB6F894DEBF0FBECDBFDF91CF9142
:1009E0000895813059F148F0823009F44AC08330CB
:1009F00009F050C066E874E046C062E473E083EC3E
:100A000096E00E94ED338091EE031F928F9383EC6A
:100A100096E09F938F9385E391E09F938F9383E874
:100A200096E09F938F930E94BD348DB79EB7089632
:100A30000FB6F8949EBF0FBE8DBF20C067E373E072
:100A400083EC96E00E94ED338091ED031F928F932B
:100A500083EC96E09F938F938FE391E09F938F9326
:100A600083E896E09F938F930E94BD348DB79EB725
:100A700008960FB6F8949EBF0FBE8DBF83E896E030
:100A800008956DE874E083EC96E00E94ED3383EC0A
:100A900096E0089581E191E00895CF93DF93CDB77B
:100AA000DEB728970FB6F894DEBF0FBECDBF80FF2C
:100AB00013C024E041EF54E064E08FEE93E00E9425
:100AC000DC021092EC030E94AE2EFC0120812093E8
:100AD000EE0381818093ED038FEE93E00E94F60395
:100AE0008091EC038823B9F080E00E943731C297EF
:100AF00018F080E00E944D3180E00E943731499724
:100B000050F08FEE93E00E940F034FE051E0682F0A
:100B10008CE00E946F3161E081E00E948730882381
:100B200059F18091EC03882319F01092EC0324C052
:100B30008FEE93E00E944203823041F018F0833040
:100B4000C9F01AC081E08093EC0316C00E94AE2E5B
:100B500028E0FC01DE01119601900D922A95E1F743
:100B60008091EE0389838091ED038A83CE01019603
:100B70000E94A02E0E942A318091EC03882309F460
:100B800042C062E080E00E9487308823D9F08FEE77
:100B900093E00E944203882319F0813059F048C045
:100BA0008091EE038B3310F081E001C08F5F809362
:100BB000EE033EC09091ED039B3300F59F5F909351
:100BC000ED0336C062E082E00E948730882381F125
:100BD0008FEE93E00E944203882319F0813049F0A0
:100BE00027C08091EE03823010F48BE3E0CF815078
:100BF000DECF8091ED03823020F48BE38093ED0310
:100C000017C08150FBCF61E080E00E9487308823CD
:100C100029F08FEE93E00E942A030AC061E082E08F
:100C20000E948730882321F08FEE93E00E941E03FC
:100C300028960FB6F894DEBF0FBECDBFDF91CF91DF
:100C40000895813081F160F0823009F051C064E98B
:100C500074E083EC96E00E94ED3383EC96E0089517
:100C600060E073E083EC96E00E94ED338091FD0339
:100C70000E9467041F928F9383EC96E09F938F935B
:100C800088E491E09F938F9383E896E09F938F93FE
:100C90000E94BD348DB79EB708960FB6F8949EBFDC
:100CA0000FBE8DBF22C06AEF72E083EC96E00E9417
:100CB000ED338091F9030E9467041F928F9383ECB8
:100CC00096E09F938F9388E491E09F938F9383E8BE
:100CD00096E09F938F930E94BD348DB79EB7089680
:100CE0000FB6F8949EBF0FBE8DBF83E896E00895BF
:100CF00081E191E00895EF92FF920F931F93CF93BC
:100D0000DF93CDB7DEB7A0970FB6F894DEBF0FBE66
:100D1000CDBFE82E80FF4DC01092FE0324E041E2DB
:100D200056E063E08FEF93E00E94DC020E948F2C7C
:100D30008C01FC0184818093FA0383818093FB03FF
:100D400085818093FC03BE016F5F7F4F81500E94BD
:100D500027338091FA03E1E0F0E0EC0FFD1FE80F8C
:100D6000F11D80818093FD03F801F480F394F092EB
:100D7000F60393819F5F9093F70385818093F80337
:100D8000668170E00E941D2DF81660F081E080936E
:100D9000F6039091F8039F5F9093F8039D3010F055
:100DA0008093F8038091F703883018F081E08093F6
:100DB000F703E3FE3FC08091FE038130D9F082301B
:100DC000B9F50E942708182F8091F803BE016F5FC4
:100DD0007F4F81500E9427338091F603E1E0F0E0DD
:100DE000EC0FFD1FE80FF11D10831093F9038091A4
:100DF000F80318C00E942708182F8091FC03BE0139
:100E00006F5F7F4F81500E9427338091FA03E1E0AA
:100E1000F0E0EC0FFD1FE80FF11D10831093FD03B0
:100E20008091FC03BE016F5F7F4F81500E94C42EF2
:100E30001092FE038FEF93E00E94F60361E081E0E1
:100E40000E9487308823F1F08FEF93E00E944203E5
:100E5000813061F028F0823051F50E942A3127C09C
:100E600081E08093FE038091FD0305C082E08093C2
:100E7000FE038091F9030E94240885EE97E00E940A
:100E8000183115C061E080E00E948730882329F086
:100E90008FEF93E00E942A030AC061E082E00E9483
:100EA0008730882321F08FEF93E00E941E03A096E5
:100EB0000FB6F894DEBF0FBECDBFDF91CF911F916B
:100EC0000F91FF90EF900895CF93C82F853049F48C
:100ED00066E874E083EC96E00E94ED3383EC96E0E4
:100EE00072C0843011F56EED72E083EC96E00E94E2
:100EF000ED338FEF0E9467041F928F9383EC96E08F
:100F00009F938F9388E491E09F938F9383E896E07B
:100F10009F938F930E94BD348DB79EB708960FB6EE
:100F2000F8949EBF0FBE8DBF4CC0811103C061EF0E
:100F300072E004C0813011F568EE72E083EC96E057
:100F40000E94ED338C2F0E9467041F928F9383ECD5
:100F500096E09F938F9388E491E09F938F9383E82B
:100F600096E09F938F930E94BD348DB79EB70896ED
:100F70000FB6F8949EBF0FBE8DBF23C063EE72E024
:100F800083EC96E00E94ED338C2F0E9467041F9241
:100F90008F931F928F9383EC96E09F938F9380E5BE
:100FA00091E09F938F9383E896E09F938F930E94A5
:100FB000BD348DB79EB70A960FB6F8949EBF0FBE8C
:100FC0008DBF83E896E0CF91089580FF11C024E0A3
:100FD00044E657E066E087E094E00E94DC0260911E
:100FE00006046F3F09F464E087E094E00E94370351
:100FF00087E094E00E94F60361E081E00E94873080
:10100000882369F087E094E00E944203853029F04C
:10101000843009F48FEF809306040C942A3161E048
:1010200080E00E948730882321F087E094E00C94D0
:101030002A0361E082E00E948730882321F087E064
:1010400094E00C941E030895809306040895809103
:1010500006040895CF93DF9380FF06C00E94A62C5C
:1010600090930F0480930E04E0910E04F0910F040E
:101070008681882309F447C081811F928F938281E2
:101080001F928F938BE591E09F938F93C3E8D6E0F7
:10109000DF93CF930E94BD34AE0160E084E00E94F4
:1010A0006F31E0910E04F0910F04868190E0845935
:1010B000984F9F938F9385811F928F9384811F9266
:1010C0008F9385E691E09F938F93DF93CF930E9458
:1010D000BD34AE0161E083E00E946F31E0910E0407
:1010E000F0910F0483810E945804AC0160E08AE013
:1010F0000E946F318DB79EB742960FB6F8949EBF8F
:101100000FBE8DBF0CC068E073E083EC96E00E94D8
:10111000ED3343EC56E060E085E00E946F3181E002
:101120000E94D330882321F0DF91CF910C942A3193
:10113000DF91CF910895909111049F3F59F4813030
:1011400009F46AC020F0823009F46CC074C066E70C
:1011500074E06AC0823009F45FC090F58823A9F179
:10116000813009F068C06AE273E083EC96E00E9487
:10117000ED3366E273E083E097E00E94ED3383E0B5
:1011800097E09F938F93809116048F93809115041D
:101190008F9383EC96E09F938F9383E891E09F93E6
:1011A0008F9383E896E09F938F930E94BD348DB711
:1011B0009EB70A960FB6F8949EBF0FBE8DBF29C08A
:1011C000833069F1843071F136C060E373E083EC01
:1011D00096E00E94ED33809110041F928F938091CE
:1011E00011041F928F9383EC96E09F938F9384E773
:1011F00091E09F938F9383E896E09F938F930E9453
:10120000BD348DB79EB70A960FB6F8949EBF0FBE39
:101210008DBF83E896E008956EE073E005C06FE649
:1012200074E002C06DE874E083EC96E00E94ED3358
:1012300083EC96E0089581E191E00895EF92FF92AA
:101240000F931F93CF93DF93CDB7DEB728970FB6D9
:10125000F894DEBF0FBECDBF80FF2EC00E94AE2E21
:10126000FC0190931F0480931E04109214041092AA
:101270001304848195816CE370E00E94FB336093DA
:1012800011048093100486819781909316048093B3
:10129000150424E04BE958E060E087E194E00E9407
:1012A000DC02809111048F3F11F463E001C065E01E
:1012B00087E194E00E94480387E194E00E94F603EE
:1012C0008091130490911404892BD9F180E00E943D
:1012D0003731C29718F080E00E944D31809112049E
:1012E000813091F018F08230E9F02BC080E00E944C
:1012F0003731499730F187E194E00E940F034FE0C6
:1013000051E0682F88E01BC080E00E943731499788
:10131000C0F087E194E00E940F034FE051E0682F96
:101320008DE00DC080E00E943731499750F087E191
:1013300094E00E940F034DE051E0682F87E00E9487
:101340006F3161E081E00E94873020911304309179
:101350001404882309F4D9C0232B09F447C08091D1
:101360001204823008F072C08F5F80931204809163
:1013700011041F928F938EE7E82E81E0F82EFF92E2
:10138000EF9203E816E01F930F930E94BD3487E1AC
:1013900094E00E940F03A801682F88E00E946F313B
:1013A000809110041F928F93FF92EF921F930F93DF
:1013B0000E94BD3487E194E00E940F03A801682FCA
:1013C0008DE00E946F310FB6F894DEBF0FBECDBF27
:1013D00080911204823008F458C1109214041092C3
:1013E0001304809111048F3F79F582C0E0911E04AF
:1013F000F0911F0488E0DE01119601900D928A950C
:10140000E1F7209111042F3F09F448C080911004A6
:1014100090E03CE3239F800D911D11249E838D83DA
:10142000809115049091160498878F8387E194E04A
:101430002F3FD1F50E944203813009F451C088F555
:10144000109211041092100465E053C0823009F02C
:101450001CC1809116048F93809115048F938DE8A1
:1014600091E09F938F9383E896E09F938F930E94E0
:10147000BD3487E194E00E940F0343E856E0682FF3
:1014800087E00E946F3110921404109213040F90A1
:101490000F900F900F900F900F90F7C08FEF9FEF6E
:1014A000BDCF823059F1F1C00E9442038230C1F0B9
:1014B00048F4882361F0813009F0E7C082E080932E
:1014C000120407C0833089F08430C1F0DEC010926E
:1014D000120481E090E09093140480931304D5C02B
:1014E0008AE298E00E941831D0C08FEF80931104F7
:1014F00063E087E194E00E944803C7C0CE010196F3
:101500000E94A02E0E942A31C0C0232B09F4A8C03B
:1015100062E082E00E948730882309F448C080910D
:1015200015049091160420911204213061F018F0F6
:10153000223089F0AAC080911104811102C087E194
:1015400051C081504FC080911004811102C08BE3C3
:1015500054C0815052C0A0E0B0E08D3221E092072B
:10156000A105B10524F04E97A109B10974C08D33CE
:101570009105A105B10524F00A97A109B1096BC035
:101580008B309105A105B10524F00597A109B1099A
:1015900062C00197A109B109181619061A061B069F
:1015A0000CF459C080EA95E0A0E0B0E054C062E0DD
:1015B00080E00E948730882309F467C08091150479
:1015C0009091160420911204213079F018F0223005
:1015D000B9F05BC080911104873118F010921104AA
:1015E00054C08F5F8093110450C0809110048B33DE
:1015F00018F01092100449C08F5F8093100445C00A
:10160000A0E0B0E08C3231E09307A105B10574F0A1
:101610004E96A11DB11D813A25E09207A105B105A5
:10162000D4F081E090E0A0E0B0E015C08C339105EB
:10163000A105B10524F00A96A11DB11D0CC08A3088
:101640009105A105B10524F00596A11DB11D03C0AA
:101650000196A11DB11D909316048093150415C029
:1016600061E082E00E948730882329F087E194E0DE
:101670000E941E030AC061E080E00E948730882338
:1016800021F087E194E00E942A0328960FB6F8948F
:10169000DEBF0FBECDBFDF91CF911F910F91FF90A5
:1016A000EF9008952091430430E080914804A9010F
:1016B000481B51094230510524F4842F880F840FB0
:1016C00010C08091470490E0AC01421B530B4230A4
:1016D00051054CF4281B390B2C5F3F4F822F880F8C
:1016E000820F8F5F089587E008959F92AF92BF9217
:1016F000CF92DF92EF92FF920F931F93CF93DF93DE
:1017000000D000D01F92CDB7DEB780FF34C00E945A
:10171000AE2EDC0112962C9130E0C9018459984F0D
:10172000909345048093440480914604883030F4BB
:101730002359384F309345042093440491E090930B
:10174000480460914404709145048F5F0E941D2DF0
:101750008093470463E274E0809146040E9427333B
:101760008091480480934304109221041092200435
:1017700080E00E944D3180E00E943731C29718F01E
:1017800080E00E944D31C0904304409147044C15C5
:10179000E8F56DE874E083EC96E00E94ED3343ECED
:1017A00056E061E081E00E946F3166E874E083EC0E
:1017B00096E00E94ED3343EC56E061E089E00E9440
:1017C0006F318091430490E020914704821B91097E
:1017D0008130910519F0029761F0D0C080E00E943D
:1017E0003731499708F4CAC026E040E261E081E061
:1017F0000AC080E00E943731499708F4BFC026E054
:1018000040E261E089E00E948831B8C08C2D90E010
:1018100004971CF0CA94CA9402C0CC24C394842FA9
:1018200090E003972C2D30E0281739071CF02CEF9F
:10183000C22EC40EDD24D394B12C0EE711E093E840
:10184000E92E96E0F92EAA24AA94AD0C1F929B2CA7
:101850009C0C9F921F930F93FF92EF920E94BD34B6
:1018600043E856E060E08D2D0E946F3140914404C2
:1018700050914504609146046F5F892D0E94DE2CD3
:101880000F900F900F900F900F900F90813019F4E0
:1018900048E860E00AC0873081F4B4E0BB120DC0B4
:1018A00048E860E082E0A82EAD0C8A2D0E948631C7
:1018B00048E861E08A2D0E948631B394E3E0DE0EB1
:1018C000F5E0BF12C0CF11E0EC2DF0E0ED5DFB4F75
:1018D00080810E946704482F61E0812F0E94863139
:1018E000C3941D5F103181F7809121048823D9F1C1
:1018F00080E00E943731499708F440C0909120045D
:1019000080914304192F181B17FD1195981760F447
:101910000E94520B912F990F910F01E0080F891B24
:1019200087FF11C080E00FC0891750F40E94520B4E
:10193000012F000F010F080F01312CF000E103C04F
:101940000E94520B082FF82E112707FD10952F2DFE
:1019500030E00217130794F04FEF61E08F2D0E94E3
:101960008631F394F4CF80E00E943731499730F00C
:101970000E94520B40E261E00E94863181E020919A
:10198000430490914704921708F080E0809322046A
:1019900061E080E00E948730082F61E082E00E94D1
:1019A0008730182F0023F1F08823E1F08091210483
:1019B00091E089278093210480914304809320043F
:1019C0000F900F900F900F900F90DF91CF911F917C
:1019D0000F91FF90EF90DF90CF90BF90AF909F90CE
:1019E0000C94093262E081E00E948730882309F478
:1019F00096C02091430480914704821710F5E22F8E
:101A0000F0E0E81BF109E130F10519F0329739F007
:101A100006C163E274E0809146040E94C42E0F90D8
:101A20000F900F900F900F90DF91CF911F910F911A
:101A3000FF90EF90DF90CF90BF90AF909F900C946D
:101A40002A3180912104882309F456C05091200442
:101A5000251718F0822F252F582FCE0101966C01E3
:101A600085E0D6011D928A95E9F7622F11E030E0FA
:101A7000561730F1A62FB0E0AD5DBB4F4C914F3FF4
:101A800009F0C4C08D818F5F8D8384E0F601E80F7B
:101A9000F11D70813F3F19F0832F90E002C084E078
:101AA00090E08C0D9D1DFC018081871708F4342F78
:101AB000261720F411978C91841310E06F5FD8CF14
:101AC000112381F0A22FB0E0AD5DBB4F3C913F3FB1
:101AD00031F0832F90E0039724F43F5F03C030E0A0
:101AE00001C03FEF521708F49AC0A22FB0E0AD5DDD
:101AF000BB4F3C932F5FF6CFE22FF0E0ED5DFB4F45
:101B000020812F3F39F0822F90E003972CF481E061
:101B1000820F03C080E001C08FEF808380C062E04D
:101B200080E00E948730811103C0002309F448C07F
:101B3000209143042F5F209343048091210440911E
:101B40004704882329F0421718F4409343040BC03C
:101B500030E0842F90E002968217930724F480915E
:101B600048048093430480914304481708F057C009
:101B70006DE874E083EC96E00E94ED3343EC56E0B0
:101B800061E081E00E946F3166E874E083EC96E0EA
:101B90000E94ED3343EC56E061E089E00F900F9036
:101BA0000F900F900F90DF91CF911F910F91FF90A9
:101BB000EF90DF90CF90BF90AF909F900C946F31DB
:101BC00062E082E00E948730811102C0112339F166
:101BD0008091430481508093430490912104992380
:101BE00031F090914804891710F490934304909138
:101BF000430480914704911104C092E0980F9093A0
:101C0000430490914304891750F4B2CFC601840F66
:101C1000911DFC0170817F5F7083842F37CF0F90FF
:101C20000F900F900F900F90DF91CF911F910F9118
:101C3000FF90EF90DF90CF90BF90AF909F9008956E
:101C4000809346040895DF92EF92FF920F931F93C3
:101C5000CF93DF93D62EEA011882D8011C9297E128
:101C6000F90190839BE3D7019C93E82FF0E0882350
:101C7000E1F0DF01AA0FBB1FA45BBB4F11968D9152
:101C80009C9112976CE370E00E94FB33962F8B338C
:101C900009F46F5F6883D11060914B04691302C02F
:101CA0008F5F01C080E0D8018C93319680914E0403
:101CB00090E0E817F907D4F4EE0FFF1FE25BFB4F4B
:101CC000818192816CE370E00E94FB33462F009784
:101CD00009F46150F9016083D11060914B046413E1
:101CE00002C0815001C08BE3D7018C93DF91CF916B
:101CF0001F910F91FF90EF90DF900895CF92DF92A8
:101D0000EF92FF920F931F93CF93DF9300D000D0F9
:101D1000CDB7DEB710924C04DD24D394D0924D049D
:101D200088EA94E00E944203C82E88EA94E00E9468
:101D30004203E82FF0E0EE0FFF1FE25BFB4F8181D3
:101D400092818F3F2FEF920709F045C088EA94E017
:101D50000E9442039E012F5F3F4F79018E010E5F6B
:101D60001F4F2E5F3F4FAE014C5F5F4F60E00E9400
:101D7000230E8C8180934B042A8120934A044C2D9E
:101D800050E0FA01EE0FFF1FE25BFB4F30E09CE3F7
:101D9000899F200D311D112432832183C11003C07E
:101DA000109249044CC08A010150110920919F04EE
:101DB0003091A0044091A1045091A2046091A30429
:101DC0007091A4048091A5049091A6040E9480348F
:101DD00021702D2532C06CE370E00E94FB336093CC
:101DE0004B0480934A0421E030E040E050E060E0A2
:101DF00070E080E090E00C2D0E946534F901DA017A
:101E0000162F072F20919F042E233091A0043F23EB
:101E10004091A1044A235091A2045B236091A30442
:101E200061237091A4047023F091A504E091A604AD
:101E30008F239E230C2D0E9480342093490480E040
:101E40000E944D310F900F900F900F90DF91CF9126
:101E50001F910F91FF90EF90DF90CF900895CF9357
:101E6000C82F88EA94E00E9445032C2F30E090E0D0
:101E7000AC01415051092417350791F041505109E7
:101E80002417350779F0415051092417350761F0BF
:101E90004150510981E02417350739F080E005C031
:101EA00084E003C083E001C082E0CF9108950F93E6
:101EB0001F93CF93DF93082F0E942F0F823009F4D6
:101EC00063C040F4882379F0813009F066C060ED8A
:101ED00072E05FC0833009F45AC0843009F05DC0FD
:101EE00066E874E056C0C02FD0E0FE01EE0FFF1F81
:101EF000E25BFB4F818192816CE370E00E94FB33D7
:101F0000FB01B82F192F20919F043091A00440911C
:101F1000A1045091A2046091A3047091A404809143
:101F2000A5049091A6040E948034217030E040E026
:101F300050E060E070E080E090E0A0E00E949C341F
:101F400011F020E501C02CE41F922F931F93BF9343
:101F5000BF0177277F936F932196DF93CF9381E91A
:101F600091E09F938F9383E896E09F938F930E94D5
:101F7000BD348DB79EB70C960FB6F8949EBF0FBEBA
:101F80008DBF83E896E00BC068EC72E002C06DE89C
:101F900074E083EC96E00E94ED3383EC96E0DF91F1
:101FA000CF911F910F9108956F927F928F929F9280
:101FB000AF92BF92CF92DF92EF92FF920F931F9357
:101FC000CF93DF9300D000D01F92CDB7DEB7182F8C
:101FD00080FF12C06EE474E08091A7040E947F32FB
:101FE00060914E046C5F24E047E55FE088EA94E08E
:101FF0000E94DC0210924D0413FF16C080914D0424
:10200000823091F40E94101D882361F010924E04DA
:1020100064E088EA94E00E94480360E088EA94E083
:102020000E94370310924D0488EA94E00E94F60360
:1020300080914D04813009F07DC080E00E943731ED
:10204000C29718F080E00E944D3180914B041F929E
:102050008F932EE7E22E21E0F22EFF92EF9203E81B
:1020600016E01F930F930E94BD3488EA94E00E940B
:102070000F03A801682F87E00E946F3180914A0406
:102080001F928F93FF92EF921F930F930E94BD3484
:1020900088EA94E00E940F03A801682F8CE00E9458
:1020A0006F310FB6F894DEBF0FBECDBF80914904EB
:1020B000882311F040E501C04CE488EA94E04D83A8
:1020C0000E940F034D81682F8FE00E94863180911E
:1020D0004C04813091F018F08230E9F02BC080E0A0
:1020E0000E943731499730F188EA94E00E940F034B
:1020F0004FE051E0682F87E01BC080E00E9437313D
:102100004997C0F088EA94E00E940F034FE051E045
:10211000682F8CE00DC080E00E943731499750F065
:1021200088EA94E00E940F0340E151E0682F8FE0BD
:102130000E946F3161E081E00E948730D0904D04B1
:1021400031E0882309F4FEC0D312AAC080914C0468
:102150008F5F80934C0488EA94E00E9442039E01C2
:102160002F5F3F4F79018E010E5F1F4F2E5F3F4F54
:10217000AE014C5F5F4F61E00E94230E90914B04D3
:102180008B81891718F08C81981710F480934B0479
:1021900090914A048981891718F08A81981710F460
:1021A00080934A0480914C04833008F43BC188EA50
:1021B00094E00E944203082F10924D04E82FF0E0B3
:1021C00080914B04EE0FFF1FE25BFB4F20914A040E
:1021D00030E09CE3899F200D311D1124328321833F
:1021E00060909F047090A0048090A1049090A2043D
:1021F000A090A304B090A404C090A504D090A6041D
:1022000021E030E040E050E060E070E080E090E00D
:102210000E946534E22EE094F32EF094042F009592
:10222000152F1095B62FB095A72FA095F82FF095E4
:10223000E92FE095E620F72008211921BA21AB21EA
:10224000FC21ED21E0929F04F092A0040093A104F0
:102250001093A204B093A304A093A404F093A50444
:10226000E093A604E0914904EE2309F4DBC0622A5E
:10227000732A842A952AA62AB72AC82AD92A6092BC
:102280009F047092A0048092A1049092A204A09254
:10229000A304B092A404C092A504D092A604C2C024
:1022A00088EA94E00E9442030E942F0F8230A9F135
:1022B00028F4882379F1813031F0B4C08330C9F13A
:1022C0008430E9F1AFC060914E04683208F0AAC0D2
:1022D000E62FF0E0662369F0DF01AA0FBB1FA45BC5
:1022E000BB4F11968D919C9112978F39954008F0B4
:1022F00099C0EE0FFF1FE25BFB4F8FEF9FEF9283C2
:10230000818381E0860F80934E046B5F88EA94E0BE
:102310000E9448030E947E0E85C080934D0464EAAB
:1023200072E080E00E94061D89E89CE10E9418315D
:1023300079C06EE474E08091A7040E94B42E0E94DC
:102340002A3170C0D31259C088EA94E00E94420337
:102350009E012F5F3F4F79018E010E5F1F4F2E5F51
:102360003F4FAE014C5F5F4F61E00E94230E62E081
:1023700080E00E9487308823C9F080914C0481302E
:1023800061F0F8F480914B049B81891710F08C81E7
:1023900001C08F5F80934B0445C080914A049981AE
:1023A000891710F08A8126C08F5F24C062E082E026
:1023B0000E9487308823B1F180914C04813091F0E4
:1023C00040F0823079F5809149048D25809349044D
:1023D00029C080914B049C81981710F08B81DACF33
:1023E0008150D8CF80914A049A81981710F0898142
:1023F00001C0815080934A0415C062E080E00E94D1
:102400008730882329F088EA94E00E942A030AC0D2
:1024100062E082E00E948730882321F088EA94E01D
:102420000E941E030F900F900F900F900F90DF915E
:10243000CF911F910F91FF90EF90DF90CF90BF90C1
:10244000AF909F908F907F906F9008958093A70496
:10245000089590E08930910518F5FC01EC5CFF4F80
:102460000C94453465EF73E017C060E074E014C06D
:102470006BED73E011C066EB73E00EC066EA73E0CB
:102480000BC06EE773E008C06BE873E005C064E75B
:1024900073E002C06DE573E083EC96E00E94ED33DB
:1024A00083EC96E00895DF92EF92FF920F931F93D3
:1024B000CF93DF93CDB7DEB728970FB6F894DEBF82
:1024C0000FBECDBF182F80FF17C00E948F2C909396
:1024D000B4048093B3040E94AE2E9093B204809310
:1024E000B10424E049E252E169E085EB94E00E9406
:1024F000DC0282E08093AF0412FF06C082E080938A
:10250000AF0480E00E944D318091AF04823099F495
:1025100063EA74E083EC96E00E94ED3343EC56E00E
:1025200060E082E00E946F3180E00E943731C29704
:1025300008F4F5C1F1C1813009F0A3C14AE360E0BC
:1025400082E00E9486314AE360E085E00E948631A5
:102550004DE261E082E00E9486314DE261E085E07B
:102560000E948631E091B304F091B40482811F92FD
:102570008F938EE7E82E81E0F82EFF92EF9203E82A
:1025800016E01F930F930E94BD34A80160E080E025
:102590000E946F31E091B304F091B40481811F92E5
:1025A0008F93FF92EF921F930F930E94BD34A80167
:1025B00060E083E00E946F31E091B304F091B404D5
:1025C00080811F928F93FF92EF921F930F930E942F
:1025D000BD34A80160E086E00E946F31E091B30451
:1025E000F091B40484811F928F93FF92EF921F9316
:1025F0000F930E94BD34A80161E080E00E946F311A
:10260000E091B304F091B40485811F928F93FF92FF
:10261000EF921F930F930E94BD34A80161E083E005
:102620000E946F31E091B304F091B404868190E090
:102630008459984F9F938F938FE691E09F938F9348
:102640001F930F930E94BD340FB6F894DEBF0FBEE8
:10265000CDBFA80161E086E00E946F310E94A32CEB
:10266000813031F0823011F040E203C04DE201C010
:102670004BE260E088E00E948631E091B304F09183
:10268000B40483810E945804BC0183E896E00E9450
:10269000B63443E856E061E08BE00E946F310E945F
:1026A000E82E892B31F041E960E08FE00E9486310D
:1026B00025C00E94DD2E8F3FD9F090E001969F93B8
:1026C0008F9387EA91E09F938F9383E896E09F939F
:1026D0008F930E94BD3443E856E060E08EE00E9494
:1026E0006F310F900F900F900F900F900F9006C0CA
:1026F0004BEA51E060E08EE00E946F310E94B12E03
:102700000E946704482F60E08BE00E9486310E949F
:10271000A426882309F47FC00E94AE26882311F0E6
:1027200045E901C042E961E08FE00E9486310E94E4
:10273000AB26182F0E94A826882309F441C0E4E69E
:102740001E9FC00111246BE370E00E94FB3328E25E
:10275000269FC001279F900D112464E670E00E941F
:10276000FB33862F65E00E94EF33D92E8E010F5F79
:102770001F4F98E0F80111929A95E9F7E82EF12C95
:10278000A7016FE170E0C8010E94AF3424E030E09F
:1027900060E074E081E090E0472F421B4D1550F45B
:1027A000AC01022E01C0440F0A94EAF7642B2150B9
:1027B0003109F2CFF801EE0DFF1D6083C8010CC096
:1027C0001B33A9F448E050E06FE170E0CE010196C0
:1027D0000E94AF34CE0101960E94072F8DE10E9426
:1027E000F83146E961E08EE00E94863114C082E053
:1027F0000E9437318C018931910510F443E901C001
:1028000044E961E08EE00E9486310233110518F040
:1028100082E00E944D31E091B304F091B4049091B4
:10282000B0048081981741F081E00E944D314AE365
:1028300060E085E00E948631E091B304F091B40439
:1028400080818093B00461E082E00E948730182F7D
:1028500061E081E00E948730812B29F085EB94E0D4
:102860000E943A030BC061E080E00E948730882319
:1028700009F455C085EB94E00E943D031092AF042B
:102880004EC085EB94E00E94F60361E081E00E9477
:102890008730882351F185EB94E00E94420390E059
:1028A00089309105E0F5FC01E35CFF4F0C94453461
:1028B00081EA99E117C08AE59BE114C085E894E0BC
:1028C00011C08EE199E00EC08DE495E00BC08BE75E
:1028D00096E008C088EC96E105C08BE995E102C05E
:1028E00086EB94E10E9418311AC061E082E00E94F8
:1028F0008730882329F085EB94E00E941E030AC0EC
:1029000061E080E00E948730882349F085EB94E005
:102910000E942A03882319F081E08093AF0428964F
:102920000FB6F894DEBF0FBECDBFDF91CF911F91E0
:102930000F91FF90EF90DF900895813059F038F0BB
:10294000823059F0833079F464E974E008C06FE6AE
:1029500071E005C067E571E002C064E471E083ECFA
:1029600096E00E94ED3383EC96E00895CF93C82F54
:1029700080FF0AC01092BC0424E04DE954E164E0F9
:102980008DEB94E00E94DC02C3FF23C08091BC0465
:10299000823069F0833089F08130C9F40E94101DC3
:1029A0008130A9F40E9434330E94D12C10C00E94BF
:1029B000101D813061F480E004C00E94101D813040
:1029C00031F40E94761984E697E10E941831109242
:1029D000BC048DEB94E00E94F60361E081E00E946C
:1029E0008730882341F18DEB94E00E9442038130CF
:1029F00071F038F08230C1F0833099F5CF910C94AA
:102A00002A3182E08093BC0460E171E005C083E07C
:102A10008093BC046CED70E081E00E94061D89E8A3
:102A20009CE1CF910C94183181E08093BC0468EA5A
:102A300070E080E0F2CF61E082E00E94873088237E
:102A400029F08DEB94E0CF910C941E0361E080E0BF
:102A50000E948730882329F08DEB94E0CF910C946D
:102A60002A03CF910895CF93C82F482F50E04E30BE
:102A70005105B8F5FA01EA5BFF4F0C9445346CE25E
:102A800074E020C060E274E01DC067E174E01AC029
:102A90006EE074E017C067E674E014C062E674E0AC
:102AA00011C06BE574E00EC062E574E00BC06EE42B
:102AB00074E008C065E474E005C06EE374E002C031
:102AC00065E374E083EC96E00E94ED330CC065E9A9
:102AD00072E002C064E974E083EC96E00E94ED339A
:102AE00026C08C3020F52091C5043091C604C45016
:102AF000C83010F42F5F3F4F3F932F9383EC96E045
:102B00009F938F938EEA91E09F938F9383E896E053
:102B10009F938F930E94BD348DB79EB708960FB6D2
:102B2000F8949EBF0FBE8DBF83E896E002C083EC91
:102B300096E0CF910895FF920F931F93CF93DF9369
:102B4000CDB7DEB7A8970FB6F894DEBF0FBECDBFE6
:102B5000182F80FF15C024E043E355E16EE087ECB9
:102B600094E00E94DC020E94AE2EFC01228130E043
:102B70002459384F3093C6042093C5041092C404DE
:102B800013FF58C08091C404813009F051C00E94E5
:102B9000101D813009F04CC06CE774E083EC96E0C6
:102BA0000E94ED3343EC56E060E080E00E946F311C
:102BB00048E960E08FE00E9486310E94B9310E94AE
:102BC000AE2E28E0FC01DE01919601900D922A952F
:102BD000E1F70E948F2CFC0186818BA3CE018196A8
:102BE0000E94A02E8BA190E08459984F9093C60428
:102BF0008093C50410E04091C5045091C60418307C
:102C000010F44F5F5F4FFF24F394F10E0EE320E0CA
:102C10006F2DCE0101960E94402DBE016F5F7F4F48
:102C2000812F0E94C42EFCE0FF1611F01F2DE3CF70
:102C30001092C40487EC94E00E94F60361E081E006
:102C40000E948730882331F187EC94E00E94420390
:102C50008C3029F08D3069F40E942A3130C081E037
:102C60008093C4046EE672E00E94061D89E89CE130
:102C70000EC087EC94E00E94420390E008966CE05E
:102C800070E00E940F340E94200E85E79BE00E94B6
:102C9000183115C061E080E00E948730882329F058
:102CA00087EC94E00E942A030AC061E082E00E945F
:102CB0008730882321F087EC94E00E941E03A896B9
:102CC0000FB6F894DEBF0FBECDBFDF91CF911F913D
:102CD0000F91FF900895CF93C82F843049F464E991
:102CE00074E083EC96E00E94ED3383EC96E04EC0F6
:102CF000811103C061EF72E004C0813011F568EE0C
:102D000072E083EC96E00E94ED338C2F0E94670402
:102D10001F928F9383EC96E09F938F9388E491E0CA
:102D20009F938F9383E896E09F938F930E94BD3487
:102D30008DB79EB708960FB6F8949EBF0FBE8DBF95
:102D400023C063EE72E083EC96E00E94ED338C2F9B
:102D50000E9467041F928F931F928F9383EC96E0DB
:102D60009F938F9380E591E09F938F9383E896E004
:102D70009F938F930E94BD348DB79EB70A960FB66E
:102D8000F8949EBF0FBE8DBF83E896E0CF91089563
:102D900080FF08C024E04BE656E165E08EEC94E04D
:102DA0000E94DC028EEC94E00E94F60361E081E078
:102DB0000E948730882391F08EEC94E00E944203B9
:102DC000843011F40C942A318EEC94E00E9442037A
:102DD0000E94261284ED9FE00C94183161E080E09F
:102DE0000E948730882321F08EEC94E00C942A0313
:102DF00061E082E00E948730882321F08EEC94E02D
:102E00000C941E030895CF93DF9300D0CDB7DEB7A7
:102E1000AE014F5F5F4F60E170E089EE94E00E9489
:102E20005E23813019F489EC8093D60489819A81DC
:102E300099270F900F90DF91CF910895CF93DF9353
:102E40002091D7043091D804A4E6B0E00E944B341E
:102E50002AE096958795779567952A95D1F7C62F9D
:102E60001F926F9324EB31E03F932F9323E836E0DA
:102E70003F932F930E94BD3443E856E060E08BE01F
:102E80000E946F314CE761E080E00E9486314CE7A0
:102E900061E08FE00E9486318C2F67E00E94EF3363
:102EA000D82F0F900F900F900F900F900F90C0E0C1
:102EB000CD1739F0CF5F4DE361E08C2F0E94863152
:102EC000F7CFDF91CF910895EF92FF920F931F9369
:102ED000CF93DF9300D0CDB7DEB780FF0AC081E08B
:102EE0008093D6041092D8041092D70484E00E94F4
:102EF0004D318091D604873C09F47DC188F484303B
:102F000009F491C030F48130D9F1823009F457C00E
:102F1000E4C1853009F4C2C0863009F421C1DDC1A5
:102F20008A3C09F4ADC1A8F4883C09F489C1893C04
:102F300009F0D3C16DE172E083EC96E00E94ED33BD
:102F400043EC56E060E080E00E946F316CE072E09C
:102F500085C18C3C09F4B2C108F4A1C18D3C09F0D3
:102F6000BCC166ED71E083EC96E00E94ED3343EC6A
:102F700056E060E080E00E946F316DEC71E06EC160
:102F800064E572E083EC96E00E94ED3343EC56E09A
:102F900060E080E00E946F316BE472E083EC96E0C9
:102FA0000E94ED3343EC56E061E080E00E946F3117
:102FB00048E961E08FE00E94863182E00DC089EF30
:102FC00094E00E946E20823051F489EF94E00E94D8
:102FD0006E20823021F488EC8093D6047EC181304B
:102FE000B1F0863011F48AECF7CF811176C162E638
:102FF00072E083EC96E00E94ED3383EC96E00E9451
:10300000EA21833011F48BECE7CF813011F489ECA5
:10301000E3CF811162C18091D504811102C084E0A7
:10302000DBCF85E0D9CF0E9403178C01009711F404
:103030008CECD2CF6091D7047091D804860F971F83
:103040008130944028F040E054E0461B570B01C00B
:10305000A80189EE94E00E94C1368091D704909136
:10306000D804800F911F9093D8048093D70467E908
:1030700071E083EC96E00E94ED3343EC56E060E0B3
:1030800080E00E946F310E941E178091D7049091BA
:10309000D8048115944008F420C155C06091D7042C
:1030A0007091D80400E014E0061B170B01311105E4
:1030B00010F000E110E0A80189EE94E00E94B13622
:1030C000AE014F5F5F4FB80189EE94E00E942E245D
:1030D0008091D7049091D804800F911F9093D804C9
:1030E0008093D70489819A810817190769F08CECBD
:1030F0008093D604AE014F5F5F4F60E070E080E0E8
:1031000090E00E942E24E9C068E871E083EC96E02C
:103110000E94ED3343EC56E060E080E00E946F31A6
:103120000E941E178091D7049091D8048115944075
:1031300008F4D3C0AE014F5F5F4F60E070E080E005
:1031400090E00E942E2486E08093D60460E070E038
:10315000CB010E942D251092D8041092D704BDC037
:103160000E9403177C01009709F462CF6091D70495
:103170007091D804860F971F8130944028F000E0AA
:1031800014E0061B170B01C08701A80189ED94E02C
:103190000E94B1368091D7049091D8048E0D9F1D66
:1031A0009093D8048093D704E9EEF4E0A9EDB4E05D
:1031B00007511B4FE017F10731F091918D9198174E
:1031C000C9F38DEC09CF6EE871E083EC96E00E94C4
:1031D000ED3343EC56E060E080E00E946F310E94E6
:1031E0001E178091D7049091D8048115944008F45B
:1031F00074C087ECF1CE68EA71E083EC96E00E943F
:10320000ED3343EC56E060E080E00E946F316EE900
:1032100071E083EC96E00E94ED3343EC56E061E010
:1032200080E00E946F3181E00E94D330882309F44E
:1032300054C08091D504811120C00E94D12C4DC072
:103240006BE372E083EC96E00E94ED3343EC56E0D2
:1032500060E080E00E946F316AE272E083EC96E009
:103260000E94ED3343EC56E061E080E00E946F3154
:1032700081E00E94D330882381F10E942A312DC041
:103280006CEF71E083EC96E00E94ED3343EC56E086
:1032900060E080E00E946F316DEE71E0DFCF62EEA2
:1032A00071E083EC96E00E94ED3343EC56E060E081
:1032B00080E00E946F3162E672E0D0CF6DEB71E08A
:1032C00083EC96E00E94ED3343EC56E060E080E052
:1032D0000E946F3161EB71E0C1CF0F900F90DF91D1
:1032E000CF911F910F91FF90EF9008958093D50497
:1032F00008956091230570912405809125050E9411
:103300001D2D90912605891710F480932605809134
:1033100026051F928F938EE791E09F938F9383E80A
:1033200096E09F938F930E94BD340F900F900F9063
:103330000F900F900F9043E856E061E08BE00C9403
:103340006F31EF92FF920F931F93CF93DF93CDB71F
:10335000DEB727970FB6F894DEBF0FBECDBF80FF54
:103360001AC00E948F2CFC01909329058093280598
:10337000848180932605858180932505868190E050
:103380008459984F90932405809323051092270524
:1033900080E00E944D314DE261E087E00E9486317D
:1033A0004DE261E08AE00E94863162E573E083E8E5
:1033B00096E00E94ED3343E856E060E083E00E942F
:1033C0006F316FE473E083E896E00E94ED3343E8E9
:1033D00056E060E088E00E946F316CE473E083E8BF
:1033E00096E00E94ED3343E856E060E08BE00E94F7
:1033F0006F314DE260E087E00E9486314DE260E08F
:103400008AE00E948631809124058F938091230564
:103410008F938FE691E09F938F9303E816E01F93BD
:103420000F930E94BD34A80161E083E00E946F31D8
:10343000809125051F928F939EE7E92E91E0F92E4A
:10344000FF92EF921F930F930E94BD34A80161E099
:1034500088E00E946F31809126051F928F93FF9222
:10346000EF921F930F930E94BD34A80161E08BE09F
:103470000E946F3180E00E9437310FB6F894DEBFB2
:103480000FBECDBFC29718F080E00E944D318091F1
:103490002705813071F018F08230A9F01FC080E05C
:1034A0000E9437314997D0F04DE051E061E083E070
:1034B00013C080E00E943731499780F04FE051E01F
:1034C00061E088E009C080E00E943731499730F020
:1034D0004FE051E061E08BE00E946F3161E081E0FC
:1034E0000E948730882309F468C00E9409328091C5
:1034F00027058F5F80932705833010F1E091280521
:10350000F091290587E0DE01119601900D928A95D0
:10351000E1F7809126058D83609125056E834091AA
:1035200023055091240594E9940F9F830E94DE2C7B
:103530008C83CE0101960E94922C0E942A31ADC04C
:10354000809124058F93809123058F938FE691E0DE
:103550009F938F9303E816E01F930F930E94BD344F
:10356000A80161E083E00E946F31809125051F92E0
:103570008F938EE7E82E81E0F82EFF92EF921F9353
:103580000F930E94BD34A80161E088E00E946F3172
:10359000809126051F928F93FF92EF921F930F93B6
:1035A0000E94BD34A80161E08BE00E946F310FB62C
:1035B000F894DEBF0FBECDBF70C062E080E00E9415
:1035C00087308823A9F1809127058130B9F018F060
:1035D0008230E1F062C0809123059091240583330D
:1035E00028E0920718F08CE697E001C001969093CE
:1035F0002405809323050E9479194FC090912505D9
:103600009C30C0F59F5F90932505F5CF109126055E
:103610006091230570912405809125050E941D2D40
:10362000181710F081E037C0809126058F5F33C0F6
:1036300062E082E00E948730882379F1809127053B
:10364000813089F018F08230C1F027C080912305C5
:10365000909124058D3637E0930718F483E398E0C2
:10366000C6CF0197C4CF80912505823010F48CE03D
:1036700001C0815080932505BECF80912605823000
:1036800048F46091230570912405809125050E94DE
:103690001D2D01C081508093260527960FB6F89402
:1036A000DEBF0FBECDBFDF91CF911F910F91FF9075
:1036B000EF900895EF92FF920F931F93CF93DF93B4
:1036C000CDB7DEB727970FB6F894DEBF0FBECDBFDC
:1036D00080FF12C00E948F2C90932E0580932D05A1
:1036E000FC01228120932B05818180932A05109271
:1036F0002C0580E00E944D314AE361E087E00E94A2
:1037000086316AE573E083E896E00E94ED3343E892
:1037100056E060E084E00E946F3167E573E083E883
:1037200096E00E94ED3343E856E060E089E00E94B5
:103730006F314AE360E087E00E94863180912B057B
:103740001F928F939EE7E92E91E0F92EFF92EF9260
:1037500003E816E01F930F930E94BD34A80161E0B7
:1037600084E00E946F3180912A051F928F93FF920F
:10377000EF921F930F930E94BD34A80161E089E08E
:103780000E946F3180E00E9437310FB6F894DEBF9F
:103790000FBECDBFC29718F080E00E944D318091DE
:1037A0002C05882319F0813059F015C080E00E9463
:1037B0003731499780F04FE051E061E084E009C083
:1037C00080E00E943731499730F04FE051E061E0EE
:1037D00089E00E946F3162E080E00E948730882398
:1037E000C9F080912C05882319F0813051F032C046
:1037F00080912B05873118F010922B052BC08F5F1D
:103800001DC080912A058B3318F010922A0522C022
:103810008F5F1EC062E082E00E9487308823D1F073
:1038200080912C05882319F0813059F013C08091C4
:103830002B05811102C087E101C0815080932B05C7
:1038400009C080912A05811102C08BE301C081501B
:1038500080932A0561E081E00E948730882309F483
:103860004BC00E94093280912C058F5F80932C05FC
:103870008230C8F0E0912D05F0912E0587E0DE0141
:10388000119601900D928A95E1F780912B058B831B
:1038900080912A058A831982CE0101960E94922C7A
:1038A0000E942A3129C080912B051F928F938EE7A9
:1038B000E82E81E0F82EFF92EF9203E816E01F93C6
:1038C0000F930E94BD34A80161E084E00E946F3133
:1038D00080912A051F928F93FF92EF921F930F936F
:1038E0000E94BD34A80161E089E00E946F310FB6EB
:1038F000F894DEBF0FBECDBF27960FB6F894DEBF9B
:103900000FBECDBFDF91CF911F910F91FF90EF9030
:1039100008950F931F9380FD10922F056FE974E0B7
:1039200083E896E00E94ED3343E856E061E083E0EF
:103930000E946F316BE974E083E896E00E94ED33FA
:1039400043E856E061E08AE00E946F3180913205E1
:10395000882361F08130A9F480E00E9437314997D3
:1039600080F04EE051E061E083E009C080E00E9419
:103970003731499730F04EE051E061E08AE00E9433
:103980006F31609130057091310583EC96E00E94B3
:10399000ED330FE215E024E040E163E876E083ECEC
:1039A00096E00E94540343E856E060E080E00E9405
:1039B0006F3161E081E00E948730882319F00E9416
:1039C0002A3117C061E080E00E948730882339F0F7
:1039D00080913205813051F4109232050AC061E0C5
:1039E00082E00E9487308111F3CF03C081E0809391
:1039F000320580E00E943731C29728F080E01F91A5
:103A00000F910C944D311F910F910895823008F061
:103A100081E08093320570933105609330050895FD
:103A2000809132050895FF920F931F93CF93DF93F8
:103A3000C82FD42F152F062FF72E87FF09C040E07F
:103A400050E0BA0187E70E94131D823020F5CF773E
:103A50000E9495028C2F0E949A028F2D0E949A023A
:103A6000802F0E949A02812F0E949A028D2F0E941D
:103A70009A02C03421F0C83421F081E003C085E906
:103A800001C087E80E949A02CAE00E94990287FF5B
:103A900002C0C150D1F7DF91CF911F910F91FF90DC
:103AA00008958DE68A95F1F700000895AF92BF92D0
:103AB000CF92DF92EF92FF920F931F93CF93DF93FA
:103AC0001F92CDB7DEB7D82EC92E7901809135056A
:103AD00083FD07C029E0440F551F661F771F2A95F5
:103AE000D1F781E50E94131D882311F081E037C0D2
:103AF00090E4A92E9CE9B92E0E9499028F3F39F4D7
:103B000081E0A81AB108A114B104B1F7EFCF8E3F3C
:103B100069F782E0A82EBA2CA01AB10AAE18BF0825
:103B2000E114F10419F4ED2CFC2C06C00E9499025A
:103B3000E1E0EE1AF108F4CF0E949902F7018193B7
:103B40007F010150110901151105B1F70E94990279
:103B5000F1E0AF1AB108A114B104C1F780E0898384
:103B60000E94980289810F90DF91CF911F910F9150
:103B7000FF90EF90DF90CF90BF90AF9008950F939C
:103B80001F93CF93DF930097E1F08A01EC01080FB8
:103B9000191F0C171D0709F461C08091330590911E
:103BA0003405892B09F45AC089910E949A028091A8
:103BB0003305909134050197909334058093330534
:103BC000E8CF4115510561057105E9F08091350592
:103BD00083FD07C039E0440F551F661F771F3A95D4
:103BE000D1F788E50E94131D81113AC08FEF0E9422
:103BF0009A028EEF0E949A0280E092E09093340540
:103C0000809333052BC0C0913305D0913405CE3F4E
:103C10008FEFD80729F080E00E949A022197F7CF12
:103C20000E9499028F71853011F011E012C0C8E82E
:103C3000D3E10E9499028F3F41F02097B1F38DE6C6
:103C40008A95F1F700002197F4CF11E0CD2B09F010
:103C500010E00E9498020E94990203C010E001C087
:103C600011E0812FDF91CF911F910F910895EF9275
:103C7000FF920F931F93CF93DF9300D000D01F923A
:103C8000CDB7DEB780913505882349F0519B07C039
:103C900040E050E0BA0180E090E00E94BF1D0E9429
:103CA0008F0284E69DE69A95F1F700008150D1F7E6
:103CB0001AE00E9498021150E1F740E050E0BA018A
:103CC00080E40E94131D813009F063C04AEA51E08C
:103CD00060E070E088E40E94131D813069F57E0188
:103CE000E5E0EE0EF11C8E010F5F1F4F0E9499025E
:103CF000F80181938F01EE15FF05C1F78B818130AB
:103D000009F047C08C818A3A09F043C000E117E20C
:103D100040E050E060E070E489EE0E94131D8823CB
:103D200009F441C0FDE6FA95F1F7000001501109D0
:103D30000115110569F72DC040E050E0BA0189EE88
:103D40000E94131D823020F452E0F52E99EE03C03C
:103D5000FF24F39491E400E117E240E050E0BA015F
:103D6000892F9D830E94131D9D81882351F0FDE6BC
:103D7000FA95F1F70000015011090115110569F7D5
:103D800008C040E052E060E070E080E50E94131D52
:103D90008111F12CF09235050E94980281E0FF20FC
:103DA000F1F080E01CC040E050E0BA018AE70E94D8
:103DB000131D8111EECF8E010F5F1F4F0E949902DC
:103DC000F80181938F01EE15FF05C1F7898186FF08
:103DD00003C06CE0F62EDECF44E0F42EDBCF0F9074
:103DE0000F900F900F900F90DF91CF911F910F9137
:103DF000FF90EF9008950F931F939B01AC01E0910A
:103E00003605F09137052250310941095109868163
:103E10009781A085B1850297A109B10928173907B3
:103E20004A075B0768F4A281B0E00E945A34028915
:103E3000138924893589600F711F821F931F03C066
:103E400060E070E0CB011F910F9108950F931F93D5
:103E5000FC01A0913605B09137058C91833061F457
:103E6000058910E0102F00278489082B20E030E01E
:103E700098011127002703C000E010E09801638D2E
:103E800070E0762F6627828D682B80E090E0602BB3
:103E9000712B822B932B1F910F9108950F931F93DA
:103EA000CF93DF93EC01E0913605F091370519824D
:103EB00018826C817D818E819F81613071058105C1
:103EC000910559F1068117812085318560177107A9
:103ED0008207930710F5611571058105910539F485
:103EE0002081233021F466857785808991896887D0
:103EF00079878A879B87611571058105910519F07E
:103F00000E94FB1E04C066857785808991896C8735
:103F10007D878E879F8780E001C081E0DF91CF9110
:103F20001F910F9108950F931F93CF93DF9300D0AC
:103F300000D0CDB7DEB7E0913605F091370562309D
:103F400071058105910508F468C0068117812085F7
:103F50003185601771078207930708F05EC02081E2
:103F6000223019F0233011F158C09B013327220F62
:103F7000331F472F582F692F772782859385A48574
:103F8000B585480F591F6A1F7B1F02E010E0CE0164
:103F900001960E94561D811140C06A8170E0762F03
:103FA00066278981682B80E090E03BC09B012F77DA
:103FB0003327220F331F220F331FAB01BC01B7E0A1
:103FC0007695679557954795BA95D1F782859385EC
:103FD000A485B585480F591F6A1F7B1F04E010E0B8
:103FE000CE0101960E94561D811117C02C816B8154
:103FF000862F90E0A0E0B0E077276627922B2981FA
:10400000622B0A8110E0102F002720E030E0602BA7
:10401000712B822B932B9F7004C061E070E080E0D5
:1040200090E00F900F900F900F90DF91CF911F9124
:104030000F910895CF92DF92EF92FF920F931F930B
:10404000CF93DF93EC016A017B0102E010E02EEFD9
:1040500031E00E94561D811133C0898190E0982F74
:1040600088272881822B85359A4A61F526E330E03E
:10407000B701A601CE010E94561D811109C0898198
:1040800090E0982F88272881822B86349144E1F094
:1040900002E010E022E530E0B701A601CE010E9467
:1040A000561D81110BC0298130E0322F22278881D3
:1040B000282B81E02634314441F406C081E005C05C
:1040C00083E003C082E001C080E0DF91CF911F91C7
:1040D0000F91FF90EF90DF90CF9008954F925F92F5
:1040E0006F927F92AF92BF92CF92DF92EF92FF9248
:1040F0000F931F93CF93DF93CDB7DEB7AC970FB677
:10410000F894DEBF0FBECDBF5C0110923705109250
:1041100036050E94371E80FDFBC040E050E0BA012A
:10412000CE0101960E941A20813081F500E110E055
:104130002EEB31E040E050E0BA01CE0101960E9442
:10414000561D882311F081E030C18D81811102C09C
:1041500086E02BC18C854B84512C612C712C320153
:1041600055244424782A8985482A8A8590E0982F06
:104170008827A0E0B0E0482A592A6A2A7B2AB3019E
:10418000A201CE0101960E941A2003C0412C512C9D
:1041900032018330C1F28111DBCF04E210E02DE067
:1041A00030E0B301A201CE0101960E94561D81119B
:1041B000CACF2B8530E0322F22278A85282B40E07A
:1041C00050E02115310541055105A9F48B8D2A8D4B
:1041D000422F50E060E070E033272227582B888D73
:1041E000282B898D90E0982F8827A0E0B0E0282B1D
:1041F000392B4A2B5B2BAC81B0E00E945A346B0107
:104200007C010B8110E0102F00278A81082B980178
:1042100040E050E029A73AA74BA75CA7420E531EE7
:10422000641E751ED5011A964D925D926D927C9218
:104230001D97E9811296EC9312976E8170E0762FAC
:1042400066278D81682B15967C936E9314978885CD
:1042500090E0982F88274F81842BA0E0B0E0009752
:10426000A105B105B1F44F898E8990E0A0E0B0E0DE
:10427000DC0199278827B42B4C89842B4D8950E089
:10428000542F44278A0120E030E0802B912BA22B71
:10429000B32B14E0769567951A95E1F78B0120E032
:1042A00030E00DA31EA32FA338A7BC01CD0129A583
:1042B0003AA54BA55CA5621B730B840B950B6C197F
:1042C0007D098E099F090DA11EA12FA138A5601B94
:1042D000710B820B930B2E2F30E040E050E00E94D8
:1042E0002334DA01C9010296A11DB11DF5018683AF
:1042F0009783A087B187BA01A901465F5F40610932
:1043000071094F3F5F4E6105710508F446C002C058
:1043100082E04BC0873F9F4FA105B10508F418CF3D
:1043200083E0D5018C938330B1F42BA18AA190E076
:10433000A0E0B0E0DC0199278827B22B28A1822BCE
:1043400049A150E0542F442760E070E0842B952B66
:10435000A62BB72B06C0D701C601840D951DA61D3F
:10436000B71DF50186879787A08BB18B0DA11EA184
:104370002FA138A5400E511E621E731E4C0C5D1CF1
:104380006E1C7F1C428A538A648A758A1182B0929D
:104390003705A092360580E008C0873F9F4FA105F2
:1043A000B10508F0BDCF82E0BCCFAC960FB6F89453
:1043B000DEBF0FBECDBFDF91CF911F910F91FF9058
:1043C000EF90DF90CF90BF90AF907F906F905F9015
:1043D0004F9008957F928F929F92AF92BF92CF920B
:1043E000DF92EF92FF920F931F93CF93DF93CDB79E
:1043F000DEB7EC970FB6F894DEBF0FBECDBFC0900E
:104400003605D0903705C114D10409F42DC1D60169
:1044100011961C929E012F5C3F4F3CA32BA39C0145
:104420007901F90180812F5F3F4F8032C9F38F32CC
:1044300009F479011DA21EA21FA218A6D7018C9112
:10444000803248F4CE0181960E944E1F1982882343
:1044500009F4D6C01FC1A0E27A2E4E01BCE08B0E3B
:10446000911CEBA1FCA1DF01CF010B96A817B907A6
:1044700011F07D92FBCF90E080E028E031E0380F32
:10448000D701A80FB11D8C918132D0F08F32C1F0CD
:104490008E3209F4EBC0921798F487FF05C0A82F5D
:1044A000B0E0A55CBE4F8C914FE9480F4A3108F44B
:1044B0008052DF01A90FB11D8C939F5F832FDECF48
:1044C000E30EF11C91E0813208F090E09387CE0179
:1044D00081960E944E1F8111DDC029A13AA12F7043
:1044E0003327F5E0220F331FFA95E1F74DA55EA5BE
:1044F0006FA578A900E210E0CE0101960E94561D3A
:104500008111BAC08981882309F4C3C02C8523FD99
:104510000FC06BA17CA1FE013196CB01E815F90516
:1045200009F46AC04191DC013D91CD014317B1F31B
:10453000A0903605B090370509A11AA10F5F1F4F53
:104540000115110509F4A5C08DA59EA5AFA5B8A9B3
:104550000097A105B10509F49CC098012F7033277D
:10456000232B09F046C00196A11DB11D8DA79EA762
:10457000AFA7B8AB69A57AA58BA59CA561157105F8
:104580008105910541F4F50184819581081719078A
:1045900008F07FC02EC0D50112962C91422F50E01A
:1045A000415051099801E4E036952795EA95E1F7E5
:1045B00042235323452BE9F40E94931F6230710577
:1045C0008105910508F458C0F501268137814085A1
:1045D0005185621773078407950708F05AC069A7C9
:1045E0007AA78BA79CA70E94FB1E6DA77EA78FA70B
:1045F00098AB1AA309A371CFFB0183858823F1F13E
:104600008981882309F445C08C8584FD42C0CE0190
:1046100001960E94261FD6015E966D937D938D9321
:104620009C93919728A18F8D90E0A0E0B0E0DC01F1
:1046300099278827B22B2D8D822B4E8D50E0542F39
:10464000442760E070E0842B952BA62BB72BF60156
:10465000828F938FA48FB58F168A178A108E118E32
:1046600081E0818380E016C085E014C0283009F025
:1046700027CF98E02BE022CF81E00CC024FF09C0B7
:10468000CE0101960E94261F6DA37EA38FA398A73B
:10469000E8CE83E0EC960FB6F894DEBF0FBECDBF38
:1046A000DF91CF911F910F91FF90EF90DF90CF900E
:1046B000BF90AF909F908F907F9008954F925F92A0
:1046C0006F927F928F929F92AF92BF92CF92DF9222
:1046D000EF92FF920F931F93CF93DF934C017B01D7
:1046E0005A01C0913605D0913705FA011182108226
:1046F000209709F49FC0898180FF9EC08A8D9B8D81
:10470000AC8DBD8D4E895F89688D798D841B950B2D
:10471000A60BB70BA70160E070E084179507A6070A
:10472000B70708F47C013401412C02E0502EE1145B
:10473000F10409F47DC08E899F89A88DB98DAC01E3
:10474000BD01517066277727452B462B472BD1F5A6
:10475000DA80DA94AC01BD0119E07695679557953A
:1047600047951A95D1F7D422C1F4892B8A2B8B2B2C
:1047700029F46E8D7F8D88A199A106C06AA17BA1C5
:104780008CA19DA10E94931F623071058105910546
:10479000A0F16AA37BA38CA39DA36AA17BA18CA19A
:1047A0009DA10E94FB1E611571058105910529F1EE
:1047B000DC01CB018D0D911DA11DB11D8EA39FA309
:1047C000A8A7B9A72E893F893170C201821B930B1C
:1047D00067018E159F0508F46C014EA15FA168A5C5
:1047E00079A58114910419F480E090E001C0C3011F
:1047F00086010E94561D882319F0198281E01DC090
:104800008E899F89A88DB98D8C0D9D1DA11DB11D0F
:104810008E8B9F8BA88FB98F6C0C7D1CEC18FD08BC
:10482000F501808191818C0D9D1D918380837FCFC7
:1048300080E003C085E001C084E0DF91CF911F914B
:104840000F91FF90EF90DF90CF90BF90AF909F902F
:104850008F907F906F905F904F9008954F925F92EE
:104860006F927F928F929F92AF92BF92CF92DF9280
:10487000EF92FF920F931F93CF93DF936C018B0105
:104880005A01C0913605D0913705FA011182108284
:10489000209709F4CEC0898180FFCDC08074611556
:1048A000710579F4882349F040E050E0BA0180E0D6
:1048B00090E00E94BF1D811191C089818F7B898307
:1048C000B6C081110AC08E899F89A88DB98D8827AD
:1048D0009E7F8E8B9F8BA88FB98F8A8D9B8DAC8D81
:1048E000BD8D4E895F89688D798D841B950BA60BD4
:1048F000B70BA80160E070E084179507A607B7071B
:1049000008F48C01812C32E0932E43C0AB01BC0132
:104910004F0D511D611D711D4EA35FA368A779A79F
:1049200080E090E00E94BF1D811158C089818064A1
:1049300089838E899F8991709401281B390B780196
:104940002017310708F479012701612C712CB3017C
:10495000A201C6010E94BF1D811140C08E899F899E
:10496000A88DB98D840D951DA61DB71D8E8B9F8BAF
:10497000A88FB98FCE0CDF1C0E191F09F5012081FD
:1049800031812E0D3F1D318320839170892B09F4D5
:1049900041C00115110509F44AC08E899F89A88D6F
:1049A000B98D9C013170232B21F6FA80FA94AC0169
:1049B000BD0129E076956795579547952A95D1F7DA
:1049C000F42279F06AA17BA18CA19DA10E94FB1E1B
:1049D000611571058105910509F098CF198281E073
:1049E0002BC0892B8A2B8B2B29F46E8D7F8D88A170
:1049F00099A106C06AA17BA18CA19DA10E94931FD1
:104A0000623071058105910548F36AA37BA38CA3ED
:104A10009DA3D8CF40E050E0BA0180E090E00E9432
:104A2000BF1D8111DBCF89818F7B8983B2CF80E06D
:104A300003C085E001C084E0DF91CF911F910F9109
:104A4000FF90EF90DF90CF90BF90AF909F908F90AE
:104A50007F906F905F904F9008952F923F924F926A
:104A60005F926F927F928F929F92AF92BF92CF92FE
:104A7000DF92EF92FF920F931F93CF93DF9300D0BB
:104A800000D0CDB7DEB79B012090360530903705BA
:104A90002114310409F4EDC0D10111964C91119704
:104AA00040FFE9C05A964D915D916D917C915D9763
:104AB00069017C014C155D056E057F0510F46A01E6
:104AC0007B01F10146885788608C718C168A178AA1
:104AD000108E118EC114D104E104F10409F4CDC08B
:104AE0008280912CA12CB12C59E0880C991CAA1C15
:104AF000BB1C5A95D1F74114510461047104D9F1DA
:104B0000B1E04B1A510861087108C701B601615044
:104B1000710981099109A50194010E942334298317
:104B20003A834B835C83C301B201A50194010E94C7
:104B3000233489819A81AB81BC8182179307A407B2
:104B4000B507C8F088279927DC0188199909AA09AF
:104B5000BB0984219521A621B721F101868B978B72
:104B6000A08FB18FC81AD90AEA0AFB0A62A173A101
:104B700084A195A13AC0D1015E966D917D918D91F0
:104B80009C919197F10162A373A384A395A32DC077
:104B90000E94931F623071058105910560F1D1017A
:104BA00016960D911D912D913C91199760177107E3
:104BB0008207930700F5D10192966D937D938D93B3
:104BC0009C93959756960D911D912D913C915997D7
:104BD000080D191D2A1D3B1DF101068B178B208F17
:104BE000318FC818D908EA08FB088C149D04AE045C
:104BF000BF0470F203C0F10111821AC0D1015696B0
:104C00008D909D90AD90BC9059978C0C9D1CAE1CC6
:104C1000BF1CF101868A978AA08EB18E0E94FB1E6E
:104C2000611571058105910529F4D10111961C9238
:104C300081E024C07501640149E0F694E794D794BB
:104C4000C7944A95D1F7F101028110E00150110992
:104C5000222717FD2095322FC022D122E222F322F3
:104C6000C60ED71EE81EF91EC6A2D7A2E0A6F1A660
:104C700004C085E003C084E001C080E00F900F9085
:104C80000F900F90DF91CF911F910F91FF90EF90B8
:104C9000DF90CF90BF90AF909F908F907F906F905C
:104CA0005F904F903F902F90089510923B05109287
:104CB0003A051092390510923805389A409A5A9858
:104CC0005298E1E8F0E0808184608083EFE6F0E0D4
:104CD00080818160808310923C0510923D05109286
:104CE0003E0510923F05109240051092410510922A
:104CF000420510924305089510924E0510924D05FD
:104D000010924505109246051092470510924805ED
:104D10001092490510924A0510924B0510924C05CD
:104D2000109244051092850010928400E9E6F0E0AC
:104D3000808181608083808182608083E89A40984E
:104D40000895409AE898089588B1809581700895F3
:104D500080914E05089580914405089589B184702D
:104D60000895F89420913C0530913D0540913E0511
:104D700050913F0560914005709141058091420539
:104D8000909143057894089580914D05089510926F
:104D90004D05089590933B0580933A0508959093AF
:104DA00039058093380508958F929F92BF92CF92D4
:104DB000DF92EF92FF920F931F93CF93DF931F9297
:104DC000CDB7DEB7E42FD52E7B01B82EC92E480112
:104DD00020FF02C080E032C1307820E040E050E0A7
:104DE00060E070E080E090E00FE00E948034D40149
:104DF0002C9320E030E04E2F417050E060E070E0F6
:104E000080E090E000E10E94803411962C9311978D
:104E100020E030E04E2F427050E060E070E080E033
:104E200090E001E10E94803412962C93129720E0CA
:104E300030E04E2F487050E060E070E080E090E09D
:104E400003E10E94803413962C9320E030E04E2F33
:104E5000407150E060E070E080E090E004E10E948A
:104E60008034222309F4B6CF4E2F407E20E030E07C
:104E70005D2D5F7060E070E080E090E005E10E94F1
:104E80008034822F29830E94A92CF40185832981F3
:104E90008C3308F09FCF822F0E94BC2CE82F20E09B
:104EA00030E040E05D2D507160E070E080E090E027
:104EB0000CE10E948034E2138DCF5D2D507E20E006
:104EC00030E040E06E2D677070E080E090E00DE132
:104ED0000E948034822F29830E94A92CD401169627
:104EE0008C9329818C3308F075CF822F0E94BC2CC3
:104EF000E82F20E030E040E050E06E2D687070E078
:104F000080E090E003E20E948034E21363CF6E2DD4
:104F1000607F20E030E040E050E07F2D737080E063
:104F200090E004E20E948034822F29830E94A92C01
:104F3000F40180872981822F0E94BC2CE82E20E07A
:104F400030E040E050E060E07F2D7C7180E090E058
:104F50000AE20E948034822F29830E94A92CD40166
:104F600017968C932981822F0E94BC2CD82EF40195
:104F700027812150273008F02DCF7F2D707E20E033
:104F800030E040E050E060E08B2D837090E00DE277
:104F90000E948034822F29830E94A92CD401199663
:104FA0008C932981822F0E94BC2C182FF40121851B
:104FB00021502C3008F00ECF20E030E040E050E0EF
:104FC00060E070E08B2D8C7F9C2D937002E30E943B
:104FD0008034822F29830E94A92C8C59D4011A96DF
:104FE0008C932981822F0E94BC2CB82EF4016285FB
:104FF000683C08F0EFCEF084FF2009F4EBCE70E0BF
:105000006459784F81850E941D2D8F1508F4E2CEDA
:10501000ED2DEE25E127EB2520E030E040E050E0EB
:1050200060E070E080E09C2D94700AE30E94803480
:10503000E213D0CED40114961C9281E00F90DF9140
:10504000CF911F910F91FF90EF90DF90CF90BF9085
:105050009F908F9008951F920F920FB60F92112478
:10506000FF920F931F932F933F934F935F936F93F1
:105070007F938F939F93AF93BF93CF93DF93EF93E0
:10508000FF9380918400909185002091690020FF1A
:1050900038C020914E052223C9F0935281309F40A1
:1050A00008F4CFC010924E0580914D058F5F80931C
:1050B0004D058091380590913905892B09F4C1C0BF
:1050C000E0913805F09139050995BBC09B548130BA
:1050D000934208F0B6C081E080934E0510924405DB
:1050E000109245051092460510924705109248050A
:1050F0001092490510924A0510924B0510924C05EA
:10510000A0C09C0133502130344008F44FC0985067
:1051100081309440A8F5F090450510914605D09156
:105120004705C0914805B0914905A0914A05F09105
:105130004B05E0914C050091440521E030E040E052
:1051400050E060E070E080E090E00E9465342F293C
:10515000312B4D2B5C2B6B2B7A2BF82BE92B2093CF
:1051600045053093460540934705509348056093A5
:10517000490570934A05F0934B05E0934C0516C022
:1051800090914E0510924E0580914D058F5F809352
:105190004D05992359F08091380590913905892B57
:1051A00029F0E0913805F0913905099580914E0577
:1051B000882309F446C0809144058F5F809344059D
:1051C000809144058B33E8F110924E0570914505AE
:1051D0006091460550914705409148053091490539
:1051E00020914A0590914B0580914C0570933C05A8
:1051F00060933D0550933E0540933F053093400535
:1052000020934105909342058093430580913A0590
:1052100090913B05892BA9F0E0913A05F0913B056F
:1052200020913C0530913D0540913E0550913F0550
:105230006091400570914105809142059091430530
:10524000099510928500109284008091690091E088
:10525000892780936900FF91EF91DF91CF91BF91F2
:10526000AF919F918F917F916F915F914F913F91FE
:105270002F911F910F91FF900F900FBE0F901F90D5
:1052800018951F920F920FB60F9211248F93809151
:105290004D058F5F80934D0510924E058F910F90B5
:1052A0000FBE0F901F9018951F93CF93DF93EC01C3
:1052B00080ED0E94CE2A80E00E94C42A81ED0E94E7
:1052C000CE2A0E94EB2A0E94A92C88830E94EB2AF6
:1052D0000E94A92C89830E94EB2A182F16FF07C071
:1052E0008F710E94A92C15FF05C0845F03C08F73C6
:1052F0000E94A92C8A830E94EB2A0E94A92C8B83EE
:105300000E94EB2A0E94A92C8C830E94EB2A182F62
:105310008F710E94A92C8D830E94F52A0E94A92CCE
:1053200017FD8C598E83DF91CF911F910C94BC2A6D
:10533000CF93DF93EC0180ED0E94CE2A80E00E94A3
:10534000C42A88810E94B12C0E94C42A89810E94AB
:10535000B12C0E94C42A8A810E94B12C0E94C42AC6
:105360008B810E94B12C0E94C42A8C810E94B12C96
:105370000E94C42A8D810E94B12C9E81943610F027
:1053800090E801C090E0892B0E94C42A8E81843667
:1053900010F094E601C090E0891B0E94B12C0E949D
:1053A000C42ADF91CF910C94BC2ACF93DF931F9234
:1053B000CDB7DEB780ED0E94CE2A81E10E94C42ADB
:1053C00081ED0E94CE2A0E94F52A89830E94BC2A80
:1053D00089810F90DF91CF91089580FF02C0289AB4
:1053E00001C0289881FF02C05F9A01C05F9882FFC8
:1053F00002C05E9A01C05E9883FF02C05D9A089564
:105400005D980895CF93C82F00C000C0299A829557
:105410008F700E94ED2900C000C0299800C000C014
:10542000299A8C2F0E94ED2900C000C0299886E39C
:105430008A95F1F700C0CF9108952A980C94022A1A
:10544000229A219A209A579A569A559A882331F08F
:105450008FEF9FE20197F1F700C000002A9829988A
:10546000299A83E00E94ED2929988FEF9FE0019708
:10547000F1F700C00000299A83E00E94ED292998E5
:105480009FEA9A95F1F7299A83E00E94ED292998DD
:105490008FEA8A95F1F7299A82E00E94ED292998EE
:1054A00083E393E00197F1F788E20E941D2A88E0E8
:1054B0000E941D2A81E00E941D2A86E696E001973F
:1054C000F1F7000086E00E941D2A8CE00C941D2A52
:1054D00082E00E941D2A86E696E00197F1F700001F
:1054E000089581E00E941D2A86E696E00197F1F773
:1054F0000000089590E4699F800D112480680C9449
:105500001D2A2A9A0C94022ACF93DF93EC018991E9
:10551000882319F00E94812AFACFDF91CF91089554
:10552000EF92FF921F93CF93DF9300D0CDB7DEB7FA
:10553000880F880F880F805C69837A830E941D2AF8
:105540006981E62E7A81F72E18E0F70181917F01BB
:105550000E94812A1150C9F70F900F90DF91CF91CF
:105560001F91FF90EF9008951092B800E9EBF0E0E2
:1055700080818C7F8083089584E98093BC00809132
:10558000BC0084FDFCCF08958093BB0084E8809329
:10559000BC008091BC0087FFFCCF089594EA9093F3
:1055A000BC009091BC0097FFFCCF0E94C42A909150
:1055B000B900987F81E0983121F0903411F080E0BB
:1055C00008950895CF93C82F8C2F0E94CE2A882348
:1055D000D9F3CF91089584EC8093BC008091BC00F6
:1055E00087FFFCCF8091BB00089584E88093BC00C6
:1055F0008091BC0087FFFCCF8091BB000895E1E063
:10560000E09368052093600530936105409362053F
:1056100050936305609364057093650580936605F8
:105620009093670508951092680510926005109296
:105630006105109262051092630510926405109244
:105640006505109266051092670510925F0510922D
:105650005E0510925D0510925C0510925505109242
:1056600054051092530581E08093500510924F0528
:105670008AE0809369058AE695E00E9454290E9499
:10568000AE2E90937205809371058FEF9AE20C9481
:10569000CA26809169058F5F8093690580915F05B7
:1056A000882379F080915F05815080935F05809118
:1056B0005F05811106C00E94A426811102C00C94CE
:1056C0007C2608950F931F93CF93DF93CDB7DEB75A
:1056D0002B970FB6F894DEBF0FBECDBF8091680543
:1056E000882379F110926805F89420916005309133
:1056F0006105409162055091630560916405709168
:105700006505809166059091670578948E010F5F1D
:105710001F4F0E94D4268823A1F00E94A126CE010B
:1057200005960E94982987E0FE013596A6E5B5E02A
:1057300001900D928A95E1F781E080935D05809359
:1057400050050E94A426882349F00E94C4268A306E
:1057500028F00E94A12682E380935F05809169056D
:105760008A3048F11092690580916E058093550545
:1057700080916F0580935405809170058093530547
:10578000F8948AE695E00E945429789490916E05E9
:105790008091550598130CC090916F058091540528
:1057A000981306C09091700580915305981719F0D1
:1057B00081E08093500580915005E0917105F09152
:1057C000720520916C05882341F110925005838168
:1057D000882319F110924F0580916F05833069F489
:1057E0002230D8F480916D058730B9F480916E0530
:1057F00090E0499794F081E00EC08A3071F4223035
:1058000060F480916D05873041F480916E0590E0E1
:1058100049971CF082E080934F0583818823B1F083
:1058200080914F05882391F0813021F4223071F46A
:1058300083E004C0823051F4233041F480936C053E
:105840008AE695E00E94982910924F0520916C05F8
:1058500080916B0590E03CE3239F800D911D112406
:10586000E0917105F091720524813581468157815F
:10587000420F531F6091510570915205211531055A
:1058800049F06217730758F48217930740F010929B
:105890005D0505C06F39754011F40097C1F3909311
:1058A000520580935105403A65E0560740F482174F
:1058B000930778F021E08417950760F00AC08217FB
:1058C000930710F021E006C0405A55408417950711
:1058D000C8F320E080915D0581110DC0222359F0AD
:1058E0000E94A426811110C080915F0581110CC017
:1058F0000E947C2609C00E94A426882319F00E94D9
:10590000A12602C010925F052B960FB6F894DEBF59
:105910000FBECDBFDF91CF911F910F9108958AE601
:1059200095E0089521E02093500510925D051092B6
:105930004F0527E0FC01AAE6B5E001900D922A95FB
:10594000E1F70C94982980914F05089586E595E03C
:105950000895982F92959F702AEF929F800D1124A1
:105960000895282F6AE00E94EF33982F990F980F1F
:10597000990F892F820F0895482F20E030E080E0B2
:1059800050E091E0BA01022E02C0759567950A9425
:10599000E2F760FD89272F5F3F4F2830310591F7EF
:1059A0000895F89428E088E190E00FB6F894A8955F
:1059B000809360000FBE20936000FFCF1F93CF93B2
:1059C000DF93182FFA01633020F43197C0E0D0E064
:1059D00002C0C2E0D0E09A012C5F3F4F47E1649FD4
:1059E000C001112469E070E00E940F34610F711D45
:1059F000260F371FCF019695879596958795280F87
:105A0000391FCF0160E971E00E94FB33260F371F79
:105A10002C1B3D0BCF0164E670E00E94FB33261B7C
:105A2000370BC90167E070E00E94FB33009709F46F
:105A300087E0DF91CF911F9108959B018230B9F4E7
:105A4000CB0183709927892B49F4CB0164E670E080
:105A50000E94FB33892B11F08DE10895C90160E9A3
:105A600071E00E94FB33892BB9F38CE108958830F3
:105A700008F0815080FD02C08EE108958FE1089505
:105A8000CF92DF92FF920F931F93CF93DF9300D0BB
:105A90001F92CDB7DEB76C01162F80E2F60111928E
:105AA0008A95E9F7BA01812F2B8349835A830E9493
:105AB0001D2DF82E49815A81612F81E00E94DE2C34
:105AC00091E010E03FEF2B81F916B8F0492F50E03C
:105AD000B801082E02C0759567950A94E2F7F601A1
