:100000000C948A020C94FB290C94A7020C94A7026E
:100010000C94A7020C94A7020C94A7020C94A702BC
:100020000C94A7020C94A7020C94A7020C94A702AC
:100030000C94A7020C94112B0C94A7020C94A70209
:100040000C9448360C94A7020C94A7020C94A702B7
:100050000C94A7020C94A7020C94A7020C94A7027C
:100060000C94A7020C94A702FB13FE1301140414B2
:1000700007140D140A141014131416142516281638
:100080002B162E163116371634163A163D16401614
:100090000F171217151718171B171E1721172417DC
:1000A00027172A172D17301737173A17437A792051
:1000B0006E61207065776E6F2063686365737A2068
:1000C0007779637A799C6369E62077737A797374B8
:1000D0006B696520757374617769656E69613F004E
:1000E000437A79206E61207065776E6F2063686354
:1000F00065737A207A6170697361E6207573746143
:100100007769656E6961206E61206B617274EA20A7
:1001100053443F00437A79206E61207065776E6F9B
:100120002063686365737A206F64637A797461E62B
:1001300020757374617769656E6961207A206B61DF
:100140007274792053443F0050727A797772F3E6E3
:10015000206661627279637A6E65005A61706973B4
:100160007A206E61206B617274EA2070616D69EAB9
:100170006369004F64637A7974616A207A206B61E5
:100180007274792070616D69EA6369005A617069FF
:1001900073005765727966696B2E004F64637A79D4
:1001A0007400706F6D799C6C6E69650057796B6F28
:1001B0006E616E6F006D61B36F2064616E7963680C
:1001C00000506C696B207A617769657261207A6191
:1001D000006E69657564616E610057657279666964
:1001E0006B61636A61004272616B20706C696B7550
:1001F0000075BF7977616AB9632046415433320094
:1002000053666F726D6174756A206B617274EA0077
:100210006F64637A797475206B61727479205344CA
:100220000042B3B96420706F64637A6173007370C5
:1002300072F362756A20706F6E6F776E6965005732
:10024000B3F3BF206B617274EA2053442069006BE2
:100250006172747920534400496E69636A616C6904
:100260007A61636A6100647A776F6E656B2E7A7368
:100270006500496E7465727761B320616C61726D5F
:10028000752070727A65727977616E65676F004468
:10029000B375676F9CE620616C61726D7500437A7F
:1002A000792063686365737A20726F7A706F637AFE
:1002B000B9E6206E6F777920726F6B20737A6B6F5F
:1002C0006C6E793F004E6F7779206B616C656E6460
:1002D00061727A00437A79206E61207065776E6F63
:1002E0002063686365737A207573756EB9E6206460
:1002F0007A776F6E6B693F005779637A799CE60075
:10030000446F64616A20647A776F6E656B00427235
:10031000616B00496E6E6500536B72F3636F6E65BF
:10032000004E6F726D616C6E65004A7574726F007D
:10033000447A697369616A006E69676479004F7312
:100340007461746E69612073796E6368726F6E692F
:100350007A61636A61006D696E0050727A657A0035
:100360004F20676F647A004E612070727A657277F1
:10037000EA004E61206C656B636AEA006464006D9C
:100380006D0072727272006D6D006767005A617263
:100390007AB9647A616A20757374617769656E6988
:1003A000616D6900416C61726D004B616C656E64DA
:1003B00061727A005A6D6965F12070726F66696CBE
:1003C0000050726F66696C652028676F647A696E89
:1003D0007920647A776F6E6BF377290044B3756781
:1003E0006F9CE620647A776F6E6B610053796E6361
:1003F00068726F6E697A61636A61207A20777A6FBA
:100400007263656D20637A617375204443463737A4
:10041000004175746F6D617479637A6E61207A6DD5
:1004200069616E6120637A617375005573746177D9
:1004300020646174EA00557374617720676F647A91
:10044000696EEA00477275647A6965F1004C6973F8
:10045000746F7061640050619F647A6965726E693F
:100460006B0057727A65736965F100536965727044
:100470006965F1004C697069656300437A6572775C
:10048000696563004D616A004B776965636965F171
:10049000004D61727A6563004C757479005374790C
:1004A000637A65F1005779B3B9637A0057B3B963DA
:1004B0007A00437A656B616A004F6B00416E756C20
:1004C000756A005A617069737A00506F7772F374BD
:1004D000004E69650054616B005A5345204B6965B5
:1004E0006C6365007573742E206661627279637A3D
:1004F0006E7963680050727A7977726163616E69B0
:100500006500496E69636A616C697A61636A612E2C
:100510002E2E000011241FBECFEFD8E0DEBFCDBFCE
:1005200013E0A0E0B1E0E4E9F4E702C005900D9229
:10053000A83DB107D9F727E0A8EDB3E001C01D92AF
:10054000AC31B207E1F70E94DA350C94483A0C94CA
:100550000000519A239A259A24982C9A089502D043
:10056000599801C0599A8FEF98E087FD2B9A87FF21
:100570002B98880F1C9983952D9A2D989A95A9F7F9
:1005800008951F93CF93DF931F92CDB7DEB7182F37
:10059000862F9FE09983BE016F5F7F4FFA01099517
:1005A000598128ED33E0DC01F9019E2F921B95174C
:1005B00018F44D91411102C080E202C04193F5CF81
:1005C000292F30E0F901E852FC4F9F3018F4808366
:1005D0009F5FF6CF108248ED53E0612F81E00E94CB
:1005E000EA330F90DF91CF911F910895FC011382A0
:1005F00015828FEF8483628351834083268308951D
:10060000FC014381262F30E064130AC0428150E090
:100610004150510981E024173507D1F080E0089559
:1006200050E0CA0101962817390779F00297281778
:10063000390769F4228130E02150310981E0421705
:10064000530709F480E08195089581E008958FEFC4
:100650000895FC012281213049F0438150E030E0CF
:100660002150310981E04217530709F080E00895D5
:10067000FC0183818F5F83839281891718F0138235
:1006800081E0089580E00895FC018381811105C017
:1006900082818150838381E008958150838380E04B
:1006A0000895FC0163830895FC0113820895FC0101
:1006B0002281215023830895FC0183810895FC0148
:1006C00082810895FC0162838381861710F0615056
:1006D000638308952FEFFC0124830895AF92BF92A6
:1006E000CF92DF92EF92FF920F931F93CF93DF93FE
:1006F00000D0CDB7DEB76C017B015801F8019081C5
:10070000FB0110E0012F090F141305C0F5018081D2
:10071000882351F00BC0D601A00FB11D8C91882306
:10072000A9F381931F5FEECF45E207C0F601E00F0A
:10073000F11D80818823C1F344E1822F2A834983FC
:100740000E94B233498150E02A818417950778F0DE
:10075000F601E00FF11D8081F501882321F09081E1
:100760009F5F908301C01082822F0E94C83320E2D5
:10077000812F90E0F701E80FF91F1F3018F4208354
:100780001F5FF6CF10820F900F90DF91CF911F91D6
:100790000F91FF90EF90DF90CF90BF90AF900895B2
:1007A000DF92EF92FF920F931F93CF93DF931F92ED
:1007B000CDB7DEB7D82E162F7A01DA0114968C91B8
:1007C0001497681751F014966C93149715961C9211
:1007D000159716968C910E94C8338FE08983D701B4
:1007E000ED91FC91BE016F5F7F4F812F09958701CD
:1007F0000B5F1F4FF7012681498168ED73E00E946E
:100800006E0348ED53E06D2D81E00E94EA330F90B6
:10081000DF91CF911F910F91FF90EF90DF9008959E
:100820001F93CF93DF93EC018A81813069F440E913
:1008300060E080E00E94013440E261E080E00E94DC
:1008400001341FEF60E022C02B8130E090E001977F
:100850002817390771F440E260E080E00E9401341B
:1008600040E961E080E00E9401341B816FEF610F7D
:100870000DC040E960E080E00E94013440E261E0A8
:1008800080E00E9401346B8111E0160F8B816813A8
:1008900005C0AE0180E00E94D00305C048815981A7
:1008A00080E00E94C1021F3FA1F08B81181308C095
:1008B000AE01612F81E0DF91CF911F910C94D003A5
:1008C00048815981612F81E0DF91CF911F910C9474
:1008D000C10242E051E061E081E0DF91CF911F91E0
:1008E0000C94EA338150873048F4E82FF0E0EE0FA3
:1008F000FF1FE95DFE4F80819181089580E091E0C6
:100900000895882331F0813031F08F3F31F0815DDF
:1009100008958EE4089583E5089587E9089588236E
:1009200029F0813049F461ED74E002C065ED74E0B6
:100930008CED96E00E9475368CED96E00895CF938D
:10094000DF93CDB7DEB72B970FB6F894DEBF0FBE9F
:10095000CDBF80FF1AC00E9429319093F10380938C
:10096000F00324E04FE854E062E089EE93E00E9457
:10097000F602E091F003F091F10361E083818111CF
:1009800060E089EE93E00E94510389EE93E00E94BB
:10099000100461E081E00E9402338823F1F0E091CD
:1009A000F003F091F1038BE0DE01119601900D92BE
:1009B0008A95E1F789EE93E00E945C03882321F099
:1009C000813021F41C8202C081E08C83CE0101962B
:1009D0000E941B310E94A53315C061E082E00E9495
:1009E0000233882329F089EE93E00E9438030AC07D
:1009F00061E080E00E940233882321F089EE93E0D9
:100A00000E9444032B960FB6F894DEBF0FBECDBFF5
:100A1000DF91CF910895813059F148F0823009F487
:100A20004AC0833009F050C06CEB74E046C062E706
:100A300073E08CED96E00E9475368091F4031F926E
:100A40008F938CED96E09F938F9385E391E09F9336
:100A50008F938CE996E09F938F930E9445378DB7D3
:100A60009EB708960FB6F8949EBF0FBE8DBF20C0EC
:100A700067E673E08CED96E00E9475368091F30393
:100A80001F928F938CED96E09F938F938FE391E06D
:100A90009F938F938CE996E09F938F930E944537A5
:100AA0008DB79EB708960FB6F8949EBF0FBE8DBF48
:100AB0008CE996E0089563EC74E08CED96E00E947A
:100AC00075368CED96E0089581E191E00895CF931D
:100AD000DF93CDB7DEB72B970FB6F894DEBF0FBE0E
:100AE000CDBF80FF13C024E04BE055E064E085EF0C
:100AF00093E00E94F6021092F2030E942931FC0159
:100B000020812093F40381818093F30385EF93E0A8
:100B10000E9410048091F2038823B9F080E00E94C3
:100B2000B233C29718F080E00E94C83380E00E9480
:100B3000B233499750F085EF93E00E9429034FE0CC
:100B400051E0682F8CE00E94EA3361E081E00E946E
:100B50000233882359F18091F203882319F010920F
:100B6000F20324C085EF93E00E945C03823041F0E1
:100B700018F08330C9F01AC081E08093F20316C0E8
:100B80000E9429312BE0FC01DE01119601900D92AB
:100B90002A95E1F78091F40389838091F3038A8396
:100BA000CE0101960E941B310E94A5338091F20371
:100BB000882309F442C062E080E00E940233882367
:100BC000D9F085EF93E00E945C03882319F081300F
:100BD00059F048C08091F4038B3310F081E001C0DC
:100BE0008F5F8093F4033EC09091F3039B3300F535
:100BF0009F5F9093F30336C062E082E00E9402336D
:100C0000882381F185EF93E00E945C03882319F02B
:100C1000813049F027C08091F403823010F48BE3D7
:100C2000E0CF8150DECF8091F303823020F48BE35C
:100C30008093F30317C08150FBCF61E080E00E94F6
:100C40000233882329F085EF93E00E9444030AC011
:100C500061E082E00E940233882321F085EF93E077
:100C60000E9438032B960FB6F894DEBF0FBECDBF9F
:100C7000DF91CF910895813081F160F0823009F0E9
:100C800051C06AEC74E08CED96E00E9475368CEDF4
:100C900096E0089560E373E08CED96E00E9475366F
:100CA000809103040E9481041F928F938CED96E043
:100CB0009F938F9388E491E09F938F938CE996E0C4
:100CC0009F938F930E9445378DB79EB708960FB6B6
:100CD000F8949EBF0FBE8DBF22C06AE273E08CED18
:100CE00096E00E9475368091FF030E9481041F9256
:100CF0008F938CED96E09F938F9388E491E09F9380
:100D00008F938CE996E09F938F930E9445378DB720
:100D10009EB708960FB6F8949EBF0FBE8DBF8CE9A4
:100D200096E0089581E191E00895EF92FF920F938C
:100D30001F93CF93DF93CDB7DEB7A0970FB6F8948C
:100D4000DEBF0FBECDBFE82E80FF4DC01092040461
:100D500024E04BE356E063E085E094E00E94F60275
:100D60000E945F2E8C01FC018481809300048381AA
:100D700080930104858180930204BE016F5F7F4FE1
:100D800081500E94AF3580910004E1E0F0E0EC0F6B
:100D9000FD1FE80FF11D808180930304F801F480AA
:100DA000F394F092FC0393819F5F9093FD03858100
:100DB0008093FE03668170E00E94ED2EF81660F0CD
:100DC00081E08093FC039091FE039F5F9093FE036C
:100DD0009D3010F08093FE038091FD03883018F061
:100DE00081E08093FD03E3FE3FC0809104048130E5
:100DF000D9F08230B9F50E944108182F8091FE0386
:100E0000BE016F5F7F4F81500E94AF358091FC0320
:100E1000E1E0F0E0EC0FFD1FE80FF11D10831093EF
:100E2000FF038091FE0318C00E944108182F809193
:100E30000204BE016F5F7F4F81500E94AF358091E9
:100E40000004E1E0F0E0EC0FFD1FE80FF11D10835E
:100E50001093030480910204BE016F5F7F4F8150A5
:100E60000E943F311092040485E094E00E94100437
:100E700061E081E00E9402338823F1F085E094E094
:100E80000E945C03813061F028F0823051F50E94AD
:100E9000A53327C081E0809304048091030405C03A
:100EA00082E0809304048091FF030E943E088FEF4C
:100EB00097E00E94933315C061E080E00E94023306
:100EC000882329F085E094E00E9444030AC061E091
:100ED00082E00E940233882321F085E094E00E94A2
:100EE0003803A0960FB6F894DEBF0FBECDBFDF91DA
:100EF000CF911F910F91FF90EF900895CF93C82F3E
:100F0000853049F46CEB74E08CED96E00E94753608
:100F10008CED96E072C0843011F56EE073E08CEDDC
:100F200096E00E9475368FEF0E9481041F928F9386
:100F30008CED96E09F938F9388E491E09F938F933D
:100F40008CE996E09F938F930E9445378DB79EB7AB
:100F500008960FB6F8949EBF0FBE8DBF4CC081118E
:100F600003C061E273E004C0813011F568E173E011
:100F70008CED96E00E9475368C2F0E9481041F92A2
:100F80008F938CED96E09F938F9388E491E09F93ED
:100F90008F938CE996E09F938F930E9445378DB78E
:100FA0009EB708960FB6F8949EBF0FBE8DBF23C0A4
:100FB00063E173E08CED96E00E9475368C2F0E9401
:100FC00081041F928F931F928F938CED96E09F93D5
:100FD0008F9380E591E09F938F938CE996E09F93A8
:100FE0008F930E9445378DB79EB70A960FB6F89437
:100FF0009EBF0FBE8DBF8CE996E0CF91089580FF14
:1010000011C024E04EE757E066E08DE094E00E94D6
:10101000F60260910C046F3F09F464E08DE094E007
:101020000E9451038DE094E00E94100461E081E091
:101030000E940233882369F08DE094E00E945C03F3
:10104000853029F0843009F48FEF80930C040C94E0
:10105000A53361E080E00E940233882321F08DE017
:1010600094E00C94440361E082E00E940233882300
:1010700021F08DE094E00C943803089580930C04E3
:10108000089580910C040895CF93DF9380FF06C0EC
:101090000E94762E9093150480931404E09114041A
:1010A000F09115048681882309F447C081811F923D
:1010B0008F9382811F928F938BE591E09F938F9303
:1010C000CCE9D6E0DF93CF930E944537AE0160E0D4
:1010D00084E00E94EA33E0911404F09115048681C3
:1010E00090E08459984F9F938F9385811F928F939F
:1010F00084811F928F9385E691E09F938F93DF9376
:10110000CF930E944537AE0161E083E00E94EA334D
:10111000E0911404F091150483810E947204AC01E3
:1011200060E08AE00E94EA338DB79EB742960FB620
:10113000F8949EBF0FBE8DBF0CC068E373E08CEDCA
:1011400096E00E9475364CED56E060E085E00E9426
:10115000EA3381E00E944E33882321F0DF91CF9162
:101160000C94A533DF91CF910895909117049F3F80
:1011700059F4813009F46AC020F0823009F46CC05F
:1011800074C06CEA74E06AC0823009F45FC090F504
:101190008823A9F1813009F068C06AE573E08CED1D
:1011A00096E00E94753666E573E08CE197E00E9458
:1011B00075368CE197E09F938F9380911C048F93F9
:1011C00080911B048F938CED96E09F938F9383E81F
:1011D00091E09F938F938CE996E09F938F930E9469
:1011E00045378DB79EB70A960FB6F8949EBF0FBECF
:1011F0008DBF29C0833069F1843071F136C060E65B
:1012000073E08CED96E00E947536809116041F9273
:101210008F93809117041F928F938CED96E09F938C
:101220008F9384E791E09F938F938CE996E09F934F
:101230008F930E9445378DB79EB70A960FB6F894E4
:101240009EBF0FBE8DBF8CE996E008956EE373E0FC
:1012500005C065EA74E002C063EC74E08CED96E0D2
:101260000E9475368CED96E0089581E191E0089535
:10127000EF92FF920F931F93CF93DF93CDB7DEB71B
:101280002B970FB6F894DEBF0FBECDBF80FF2EC0E8
:101290000E942931FC01909325048093240410922C
:1012A0001A0410921904848195816CE370E00E9405
:1012B00083366093170480931604868197819093F8
:1012C0001C0480931B0424E045EB58E060E08DE1B2
:1012D00094E00E94F602809117048F3F11F463E0BE
:1012E00001C065E08DE194E00E9462038DE194E02D
:1012F0000E9410048091190490911A04892BD9F14D
:1013000080E00E94B233C29718F080E00E94C83398
:1013100080911804813091F018F08230E9F02BC0F0
:1013200080E00E94B233499730F18DE194E00E9451
:1013300029034FE051E0682F88E01BC080E00E9445
:10134000B2334997C0F08DE194E00E9429034FE049
:1013500051E0682F8DE00DC080E00E94B2334997C4
:1013600050F08DE194E00E9429034DE051E0682F98
:1013700087E00E94EA3361E081E00E94023320911D
:10138000190430911A04882309F4D9C0232B09F4D5
:1013900047C080911804823008F072C08F5F80933C
:1013A0001804809117041F928F938EE7E82E81E036
:1013B000F82EFF92EF920CE916E01F930F930E9414
:1013C00045378DE194E00E942903A801682F88E049
:1013D0000E94EA33809116041F928F93FF92EF923E
:1013E0001F930F930E9445378DE194E00E942903DB
:1013F000A801682F8DE00E94EA330FB6F894DEBF93
:101400000FBECDBF80911804823008F458C11092ED
:101410001A0410921904809117048F3F79F582C045
:10142000E0912404F09125048BE0DE0111960190F7
:101430000D928A95E1F7209117042F3F09F448C0D7
:101440008091160490E03CE3239F800D911D1124B0
:101450009E838D8380911B0490911C0498878F83B9
:101460008DE194E02F3FD1F50E945C03813009F4B7
:1014700051C088F5109217041092160465E053C00D
:10148000823009F01CC180911C048F9380911B0451
:101490008F938DE891E09F938F938CE996E09F93D3
:1014A0008F930E9445378DE194E00E9429034CE917
:1014B00056E0682F87E00E94EA3310921A041092D7
:1014C00019040F900F900F900F900F900F90F7C08E
:1014D0008FEF9FEFBDCF823059F1F1C00E945C03C6
:1014E0008230C1F048F4882361F0813009F0E7C010
:1014F00082E08093180407C0833089F08430C1F003
:10150000DEC01092180481E090E090931A0480935A
:101510001904D5C084E498E00E949333D0C08FEFC3
:101520008093170463E08DE194E00E946203C7C0DA
:10153000CE0101960E941B310E94A533C0C0232B0F
:1015400009F4A8C062E082E00E940233882309F413
:1015500048C080911B0490911C04209118042130F4
:1015600061F018F0223089F0AAC08091170481112F
:1015700002C087E151C081504FC080911604811193
:1015800002C08BE354C0815052C0A0E0B0E08D3265
:1015900021E09207A105B10524F04E97A109B109F8
:1015A00074C08D339105A105B10524F00A97A109F6
:1015B000B1096BC08B309105A105B10524F00597E9
:1015C000A109B10962C00197A109B109181619064C
:1015D0001A061B060CF459C080EA95E0A0E0B0E0C2
:1015E00054C062E080E00E940233882309F467C09F
:1015F00080911B0490911C0420911804213079F0F3
:1016000018F02230B9F05BC080911704873118F0D0
:101610001092170454C08F5F8093170450C08091BC
:1016200016048B3318F01092160449C08F5F809314
:10163000160445C0A0E0B0E08C3231E09307A1056C
:10164000B10574F04E96A11DB11D813A25E09207B7
:10165000A105B105D4F081E090E0A0E0B0E015C0B4
:101660008C339105A105B10524F00A96A11DB11D89
:101670000CC08A309105A105B10524F00596A11D85
:10168000B11D03C00196A11DB11D90931C04809350
:101690001B0415C061E082E00E940233882329F018
:1016A0008DE194E00E9438030AC061E080E00E946E
:1016B0000233882321F08DE194E00E9444032B96AD
:1016C0000FB6F894DEBF0FBECDBFDF91CF911F9153
:1016D0000F91FF90EF900895CF93DF93EB0181304E
:1016E00081F038F08230B1F08330D1F46CEB74E0EB
:1016F00013C06FE872E08CED96E00E94753689E0C9
:1017000007C062E772E08CED96E00E9475368AE0D1
:10171000888306C063EC74E08CED96E00E94753619
:101720008CED96E0DF91CF910895CF93DF931F92D8
:10173000CDB7DEB760E089E294E00E940003682F35
:101740008F3FF1F0809128041F928F9321E931E0BF
:101750003F932F932CE936E03F932F9369830E94A8
:1017600045370F900F900F900F900F900F904CE90E
:1017700056E069818BE00F90DF91CF910C94EA33B2
:101780000F90DF91CF910895CF93DF931F92CDB744
:10179000DEB761E089E294E00E940003682F8F3F8A
:1017A000F1F0809127041F928F9329E331E03F935A
:1017B0002F932CE936E03F932F9369830E9445379E
:1017C0000F900F900F900F900F900F904CE956E0F4
:1017D00069818CE00F90DF91CF910C94EA330F90E8
:1017E000DF91CF9108951F93CF93DF93CDB7DEB7ED
:1017F0002B970FB6F894DEBF0FBECDBF80FF17C08A
:101800000E9429319093310480933004FC0120859B
:10181000209328048285809327041092260424E0D4
:101820004CE65BE064E089E294E00E94F60289E223
:1018300094E00E9410040E94950B0E94C40B8091BA
:101840002604882341F180E00E94B233C29718F049
:1018500080E00E94C83380E00E94B2334997D8F0FC
:1018600089E294E00E945C03882359F0813099F466
:1018700089E294E00E9429034FE051E0682F8CE058
:1018800008C089E294E00E9429034EE051E0682FED
:101890008BE00E94EA3361E081E00E940233909184
:1018A0002604882381F1992319F010922604B9C0E7
:1018B00089E294E00E945C03823059F018F0833092
:1018C000F9F0AFC081E08093260480E00E94C83325
:1018D000A8C0E0913004F09131048BE0DE01119654
:1018E00001900D928A95E1F78091280490E09A8703
:1018F0008987809127048B87CE0101960E941B3136
:101900000E94A5338EC0992309F476C062E082E07C
:101910000E9402338823B1F11091280489E294E0F7
:101920000E945C03882319F0813021F17AC0812F55
:1019300090E0A0E0B0E08D339105A105B10524F061
:101940000A97A109B1094AC08B309105A105B105DB
:1019500024F00597A109B10941C00197A109B10976
:10196000181619061A061B06CCF184E893E0A0E0CD
:10197000B0E034C080912704823010F48AE039C08E
:10198000815037C062E080E00E940233882309F46E
:1019900048C01091280489E294E00E945C03982FCB
:1019A000882319F08130E9F03CC0812F90E0A0E05D
:1019B000B0E08C339105A105B10524F00A96A11D74
:1019C000B11D0CC08A309105A105B10524F0059622
:1019D000A11DB11D03C00196A11DB11D8093280456
:1019E00020C0809127048A3018F09093270419C0F2
:1019F0008F5F8093270415C061E080E00E9402336E
:101A0000882329F089E294E00E9444030AC061E03F
:101A100082E00E940233882321F089E294E00E9450
:101A200038032B960FB6F894DEBF0FBECDBFDF9103
:101A3000CF911F9108952091550430E080915A0470
:101A4000A901481B51094230510524F4842F880F05
:101A5000840F10C08091590490E0AC01421B530BDD
:101A6000423051054CF4281B390B2C5F3F4F822F1D
:101A7000880F820F8F5F089587E008959F92AF923D
:101A8000BF92CF92DF92EF92FF920F931F93CF936B
:101A9000DF9300D000D01F92CDB7DEB780FF34C0F7
:101AA0000E942931DC0112962C9130E0C901845941
:101AB000984F90935704809356048091580488302F
:101AC00030F42359384F309357042093560491E053
:101AD00090935A0460915604709157048F5F0E944E
:101AE000ED2E8093590465E374E0809158040E94C0
:101AF000AF3580915A0480935504109233041092AC
:101B0000320480E00E94C83380E00E94B233C29762
:101B100018F080E00E94C833C090550440915904E9
:101B20004C15E8F563EC74E08CED96E00E94753698
:101B30004CED56E061E081E00E94EA336CEB74E02A
:101B40008CED96E00E9475364CED56E061E089E040
:101B50000E94EA338091550490E020915904821B41
:101B600091098130910519F0029761F0D0C080E0B1
:101B70000E94B233499708F4CAC026E040E261E00F
:101B800081E00AC080E00E94B233499708F4BFC0E8
:101B900026E040E261E089E00E940334B8C08C2D69
:101BA00090E004971CF0CA94CA9402C0CC24C39459
:101BB000842F90E003972C2D30E0281739071CF074
:101BC0002CEFC22EC40EDD24D394B12C0EE711E00D
:101BD0009CE9E92E96E0F92EAA24AA94AD0C1F9256
:101BE0009B2C9C0C9F921F930F93FF92EF920E944D
:101BF00045374CE956E060E08D2D0E94EA33409174
:101C0000560450915704609158046F5F892D0E94CB
:101C1000AE2E0F900F900F900F900F900F9081307D
:101C200019F448E860E00AC0873081F4B4E0BB12E0
:101C30000DC048E860E082E0A82EAD0C8A2D0E941D
:101C4000013448E861E08A2D0E940134B394E3E056
:101C5000DE0EF5E0BF12C0CF11E0EC2DF0E0EB5C42
:101C6000FB4F80810E948104482F61E0812F0E94F8
:101C70000134C3941D5F103181F7809133048823B0
:101C8000D9F180E00E94B233499708F440C09091A6
:101C9000320480915504192F181B17FD11959817C0
:101CA00060F40E941B0D912F990F910F01E0080F16
:101CB000891B87FF11C080E00FC0891750F40E9474
:101CC0001B0D012F000F010F080F01312CF000E157
:101CD00003C00E941B0D082FF82E112707FD109539
:101CE0002F2D30E00217130794F04FEF61E08F2D96
:101CF0000E940134F394F4CF80E00E94B2334997FC
:101D000030F00E941B0D40E261E00E94013481E04E
:101D10002091550490915904921708F080E0809327
:101D2000340461E080E00E940233082F61E082E029
:101D30000E940233182F0023F1F08823E1F08091F4
:101D4000330491E089278093330480915504809374
:101D500032040F900F900F900F900F90DF91CF9162
:101D60001F910F91FF90EF90DF90CF90BF90AF90B9
:101D70009F900C94843462E081E00E9402338823B7
:101D800009F496C02091550480915904821710F5EA
:101D9000E22FF0E0E81BF109E130F10519F032978C
:101DA00039F006C165E374E0809158040E943F3128
:101DB0000F900F900F900F900F90DF91CF911F9188
:101DC0000F91FF90EF90DF90CF90BF90AF909F90DA
:101DD0000C94A53380913304882309F456C05091A4
:101DE0003204251718F0822F252F582FCE01019687
:101DF0006C0185E0D6011D928A95E9F7622F11E00A
:101E000030E0561730F1A62FB0E0AB5CBB4F4C91E1
:101E10004F3F09F0C4C08D818F5F8D8384E0F60150
:101E2000E80FF11D70813F3F19F0832F90E002C051
:101E300084E090E08C0D9D1DFC018081871708F4E3
:101E4000342F261720F411978C91841310E06F5FC4
:101E5000D8CF112381F0A22FB0E0AB5CBB4F3C91F7
:101E60003F3F31F0832F90E0039724F43F5F03C09E
:101E700030E001C03FEF521708F49AC0A22FB0E043
:101E8000AB5CBB4F3C932F5FF6CFE22FF0E0EB5CF7
:101E9000FB4F20812F3F39F0822F90E003972CF4E5
:101EA00081E0820F03C080E001C08FEF808380C09B
:101EB00062E080E00E940233811103C0002309F434
:101EC00048C0209155042F5F20935504809133041E
:101ED00040915904882329F0421718F4409355047F
:101EE0000BC030E0842F90E002968217930724F411
:101EF00080915A048093550480915504481708F046
:101F000057C063EC74E08CED96E00E9475364CEDA2
:101F100056E061E081E00E94EA336CEB74E08CED06
:101F200096E00E9475364CED56E061E089E00F9036
:101F30000F900F900F900F90DF91CF911F910F9105
:101F4000FF90EF90DF90CF90BF90AF909F900C9458
:101F5000EA3362E082E00E940233811102C0112361
:101F600039F1809155048150809355049091330448
:101F7000992331F090915A04891710F490935504E5
:101F80009091550480915904911104C092E0980FEA
:101F90009093550490915504891750F4B2CFC6011F
:101FA000840F911DFC0170817F5F7083842F37CF78
:101FB0000F900F900F900F900F90DF91CF911F9186
:101FC0000F91FF90EF90DF90CF90BF90AF909F90D8
:101FD0000895809358040895DF92EF92FF920F9333
:101FE0001F93CF93DF93D62EEA011882D8011C925B
:101FF00097E1F90190839BE3D7019C93E82FF0E0F0
:102000008823E1F0DF01AA0FBB1FA25ABB4F119634
:102010008D919C9112976CE370E00E948336962F0D
:102020008B3309F46F5F6883D11060915D0469138D
:1020300002C08F5F01C080E0D8018C9331968091FF
:10204000600490E0E817F907D4F4EE0FFF1FE05AA0
:10205000FB4F818192816CE370E00E948336462FB2
:10206000009709F46150F9016083D11060915D041B
:10207000641302C0815001C08BE3D7018C93DF91C0
:10208000CF911F910F91FF90EF90DF900895CF9225
:10209000DF92EF92FF920F931F93CF93DF9300D0C5
:1020A00000D0CDB7DEB710925E04DD24D394D09279
:1020B0005F048AEB94E00E945C03C82E8AEB94E0F4
:1020C0000E945C03E82FF0E0EE0FFF1FE05AFB4F89
:1020D000818192818F3F2FEF920709F045C08AEBF3
:1020E00094E00E945C039E012F5F3F4F79018E01B7
:1020F0000E5F1F4F2E5F3F4FAE014C5F5F4F60E0A2
:102100000E94EC0F8C8180935D042A8120935C04F3
:102110004C2D50E0FA01EE0FFF1FE05AFB4F30E06C
:102120009CE3899F200D311D112432832183C1102E
:1021300003C010925B044CC08A0101501109209128
:10214000B1043091B2044091B3045091B404609151
:10215000B5047091B6048091B7049091B8040E94C0
:10216000083721702D2532C06CE370E00E94833661
:1021700060935D0480935C0421E030E040E050E037
:1021800060E070E080E090E00C2D0E94ED36F901F7
:10219000DA01162F072F2091B1042E233091B204BB
:1021A0003F234091B3044A235091B4045B236091D0
:1021B000B50461237091B6047023F091B704E091E7
:1021C000B8048F239E230C2D0E94083720935B04B4
:1021D00080E00E94C8330F900F900F900F90DF9116
:1021E000CF911F910F91FF90EF90DF90CF900895C6
:1021F000CF93C82F8AEB94E00E945F032C2F30E02E
:1022000090E0AC01415051092417350791F041503D
:1022100051092417350779F0415051092417350722
:1022200061F04150510981E02417350739F080E011
:1022300005C084E003C083E001C082E0CF9108952F
:102240000F931F93CF93DF93082F0E94F8108230D3
:1022500009F463C040F4882379F0813009F066C046
:1022600060E073E05FC0833009F45AC0843009F045
:102270005DC06CEB74E056C0C02FD0E0FE01EE0FE5
:10228000FF1FE05AFB4F818192816CE370E00E9456
:102290008336FB01B82F192F2091B1043091B2047D
:1022A0004091B3045091B4046091B5047091B604A8
:1022B0008091B7049091B8040E940837217030E0F3
:1022C00040E050E060E070E080E090E0A0E00E943C
:1022D000243711F020E501C02CE41F922F931F93A7
:1022E000BF93BF0177277F936F932196DF93CF939F
:1022F00087E991E09F938F938CE996E09F938F936A
:102300000E9445378DB79EB70C960FB6F8949EBFC6
:102310000FBE8DBF8CE996E00BC068EF72E002C083
:1023200063EC74E08CED96E00E9475368CED96E0DF
:10233000DF91CF911F910F9108956F927F928F92AD
:102340009F92AF92BF92CF92DF92EF92FF920F9344
:102350001F93CF93DF9300D000D01F92CDB7DEB78D
:10236000182F80FF12C060E674E08091B9040E94CB
:10237000FA34609160046C5F24E040E251E18AEB42
:1023800094E00E94F60210925F0413FF16C0809141
:102390005F04823091F40E94E01E882361F0109265
:1023A000600464E08AEB94E00E94620360E08AEBE0
:1023B00094E00E94510310925F048AEB94E00E9423
:1023C000100480915F04813009F07DC080E00E949C
:1023D000B233C29718F080E00E94C83380915D0448
:1023E0001F928F932EE7E22E21E0F22EFF92EF92C2
:1023F0000CE916E01F930F930E9445378AEB94E097
:102400000E942903A801682F87E00E94EA33809187
:102410005C041F928F93FF92EF921F930F930E9481
:1024200045378AEB94E00E942903A801682F8CE0CD
:102430000E94EA330FB6F894DEBF0FBECDBF809185
:102440005B04882311F040E501C04CE48AEB94E082
:102450004D830E9429034D81682F8FE00E94013433
:1024600080915E04813091F018F08230E9F02BC049
:1024700080E00E94B233499730F18AEB94E00E94E9
:1024800029034FE051E0682F87E01BC080E00E94E5
:10249000B2334997C0F08AEB94E00E9429034FE0E1
:1024A00051E0682F8CE00DC080E00E94B233499764
:1024B00050F08AEB94E00E94290340E151E0682F3C
:1024C0008FE00E94EA3361E081E00E940233D09005
:1024D0005F0431E0882309F4FEC0D312AAC08091C2
:1024E0005E048F5F80935E048AEB94E00E945C033D
:1024F0009E012F5F3F4F79018E010E5F1F4F2E5FB0
:102500003F4FAE014C5F5F4F61E00E94EC0F909136
:102510005D048B81891718F08C81981710F48093D3
:102520005D0490915C048981891718F08A8198175D
:1025300010F480935C0480915E04833008F43BC106
:102540008AEB94E00E945C03082F10925F04E82F4E
:10255000F0E080915D04EE0FFF1FE05AFB4F2091E9
:102560005C0430E09CE3899F200D311D11243283EF
:1025700021836090B1047090B2048090B304909075
:10258000B404A090B504B090B604C090B704D09045
:10259000B80421E030E040E050E060E070E080E02E
:1025A00090E00E94ED36E22EE094F32EF094042F9A
:1025B0000095152F1095B62FB095A72FA095F82F41
:1025C000F095E92FE095E620F72008211921BA219E
:1025D000AB21FC21ED21E092B104F092B204009312
:1025E000B3041093B404B093B504A093B604F0936D
:1025F000B704E093B804E0915B04EE2309F4DBC078
:10260000622A732A842A952AA62AB72AC82AD92A8E
:102610006092B1047092B2048092B3049092B404B8
:10262000A092B504B092B604C092B704D092B80498
:10263000C2C08AEB94E00E945C030E94F8108230D2
:10264000A9F128F4882379F1813031F0B4C08330C6
:10265000C9F18430E9F1AFC060916004683208F0DC
:10266000AAC0E62FF0E0662369F0DF01AA0FBB1FC6
:10267000A25ABB4F11968D919C9112978F3995401C
:1026800008F099C0EE0FFF1FE05AFB4F8FEF9FEF4E
:102690009283818381E0860F809360046B5F8AEB75
:1026A00094E00E9462030E94471085C080935F04FB
:1026B00064ED72E080E00E94D61E89E59EE10E94F2
:1026C000933379C060E674E08091B9040E942F31A1
:1026D0000E94A53370C0D31259C08AEB94E00E94C7
:1026E0005C039E012F5F3F4F79018E010E5F1F4FEC
:1026F0002E5F3F4FAE014C5F5F4F61E00E94EC0FD9
:1027000062E080E00E9402338823C9F080915E0479
:10271000813061F0F8F480915D049B81891710F09D
:102720008C8101C08F5F80935D0445C080915C0403
:102730009981891710F08A8126C08F5F24C062E0DA
:1027400082E00E9402338823B1F180915E048130DF
:1027500091F040F0823079F580915B048D25809373
:102760005B0429C080915D049C81981710F08B81D7
:10277000DACF8150D8CF80915C049A81981710F0FD
:10278000898101C0815080935C0415C062E080E0C3
:102790000E940233882329F08AEB94E00E944403CC
:1027A0000AC062E082E00E940233882321F08AEBB3
:1027B00094E00E9438030F900F900F900F900F90AD
:1027C000DF91CF911F910F91FF90EF90DF90CF900D
:1027D000BF90AF909F908F907F906F90089580935F
:1027E000B904089590E08A30910530F5FC01EC5C65
:1027F000FF4F0C94CD366BE274E01AC066E374E0D0
:1028000017C061E174E014C06CEE73E011C06CEDB0
:1028100073E00EC064EB73E00BC061EC73E008C0C2
:102820006AEA73E005C064EA73E002C06DE873E031
:102830008CED96E00E9475368CED96E00895DF925F
:10284000EF92FF920F931F93CF93DF93CDB7DEB735
:1028500028970FB6F894DEBF0FBECDBF182F80FFAC
:1028600017C00E945F2E9093C6048093C5040E94F7
:1028700029319093C4048093C30424E042EF53E1D0
:102880006AE087EC94E00E94F60282E08093C10443
:1028900012FF06C082E08093C10480E00E94C8332A
:1028A0008091C104823099F469ED74E08CED96E07A
:1028B0000E9475364CED56E060E083E00E94EA33FA
:1028C00080E00E94B233C29708F4F9C1F5C18130AB
:1028D00009F0A3C14AE360E082E00E9401344AE3C8
:1028E00060E085E00E9401344DE261E082E00E94F8
:1028F00001344DE261E085E00E940134E091C504BD
:10290000F091C60482811F928F938EE7E82E81E0BA
:10291000F82EFF92EF920CE916E01F930F930E949E
:102920004537A80160E080E00E94EA33E091C504E9
:10293000F091C60481811F928F93FF92EF921F93B3
:102940000F930E944537A80160E083E00E94EA33BC
:10295000E091C504F091C60480811F928F93FF928D
:10296000EF921F930F930E944537A80160E086E025
:102970000E94EA33E091C504F091C60484811F925D
:102980008F93FF92EF921F930F930E944537A801F8
:1029900061E080E00E94EA33E091C504F091C60452
:1029A00085811F928F93FF92EF921F930F930E9446
:1029B0004537A80161E083E00E94EA33E091C50455
:1029C000F091C604868190E08459984F9F938F932D
:1029D0008FE691E09F938F931F930F930E9445374B
:1029E0000FB6F894DEBF0FBECDBFA80161E086E050
:1029F0000E94EA330E94732E813031F0823011F050
:102A000040E203C04DE201C04BE260E088E00E947A
:102A10000134E091C504F091C60483810E947204E0
:102A2000BC018CE996E00E943E374CE956E061E03B
:102A30008BE00E94EA330E946331892B31F041E937
:102A400060E08FE00E94013425C00E9458318F3F22
:102A5000D9F090E001969F938F938DEA91E09F9338
:102A60008F938CE996E09F938F930E9445374CE9B2
:102A700056E060E08EE00E94EA330F900F900F90D6
:102A80000F900F900F9006C041EB51E060E08EE098
:102A90000E94EA330E942C310E948104482F60E09A
:102AA0008BE00E9401340E947428882309F47FC0BF
:102AB0000E947E28882311F045E901C042E961E0C7
:102AC0008FE00E9401340E947B28182F0E947828F2
:102AD000882309F441C0E4E61E9FC00111246BE382
:102AE00070E00E94833628E2269FC001279F900D48
:102AF000112464E670E00E948336862F65E00E9410
:102B00007736D92E8E010F5F1F4F98E0F801119292
:102B10009A95E9F7E82EF12CA7016FE170E0C80162
:102B20000E94373724E030E060E074E081E090E01C
:102B3000472F421B4D1550F4AC01022E01C0440F2B
:102B40000A94EAF7642B21503109F2CFF801EE0D17
:102B5000FF1D6083C8010CC01B33A9F448E050E09E
:102B60006FE170E0CE0101960E943737CE010196E9
:102B70000E9482318DE10E94733446E961E08EE06B
:102B80000E94013414C082E00E94B2338C0189316A
:102B9000910510F443E901C044E961E08EE00E9430
:102BA00001340233110518F082E00E94C833E0912D
:102BB000C504F091C6049091C2048081981741F039
:102BC00081E00E94C8334AE360E085E00E9401345E
:102BD000E091C504F091C60480818093C20461E055
:102BE00082E00E940233182F61E081E00E940233EC
:102BF000812B29F087EC94E00E9454030BC061E024
:102C000080E00E940233882309F459C087EC94E0E5
:102C10000E9457031092C10452C087EC94E00E94B6
:102C2000100461E081E00E940233882371F187EC97
:102C300094E00E945C0390E08A30910508F03FC068
:102C4000FC01E25CFF4F0C94CD3681E79BE11AC09A
:102C50008AE29DE117C08FE994E014C088E399E00F
:102C600011C087E695E00EC085E996E00BC088E9C3
:102C700098E108C08BE697E105C083EF9BE002C0B6
:102C800086E896E10E9493331AC061E082E00E94D8
:102C90000233882329F087EC94E00E9438030AC0AD
:102CA00061E080E00E940233882349F087EC94E0E1
:102CB0000E944403882319F081E08093C104289680
:102CC0000FB6F894DEBF0FBECDBFDF91CF911F913D
:102CD0000F91FF90EF90DF900895813059F038F018
:102CE000823059F0833079F46AEC74E008C063E70D
:102CF00071E005C06BE571E002C068E471E08CED45
:102D000096E00E9475368CED96E00895CF93C82F1B
:102D100080FF0AC01092CE0424E04DE656E164E044
:102D20008FEC94E00E94F602C3FF23C08091CE0492
:102D3000823069F0833089F08130C9F40E94E01E4E
:102D40008130A9F40E94BC350E94A12E10C00E94BF
:102D5000E01E813061F480E004C00E94E01E8130FA
:102D600031F40E94461B84E399E10E949333109250
:102D7000CE048FEC94E00E94100461E081E00E9498
:102D80000233882341F18FEC94E00E945C03813090
:102D900071F038F08230C1F0833099F5CF910C9406
:102DA000A53382E08093CE0464E171E005C083E046
:102DB0008093CE0460EE70E081E00E94D61E89E52B
:102DC0009EE1CF910C94933381E08093CE046CEA22
:102DD00070E080E0F2CF61E082E00E94023388235D
:102DE00029F08FEC94E0CF910C94380361E080E0FF
:102DF0000E940233882329F08FEC94E0CF910C9449
:102E00004403CF910895CF93C82F482F50E04E3000
:102E10005105B8F5FA01E85BFF4F0C94CD3662E638
:102E200074E020C066E574E01DC06DE474E01AC073
:102E300064E474E017C06DE974E014C068E974E0FC
:102E400011C061E974E00EC068E874E00BC064E88A
:102E500074E008C06BE774E005C064E774E002C08A
:102E60006BE674E08CED96E00E9475360CC065EC64
:102E700072E002C06AEC74E08CED96E00E94753658
:102E800026C08C3020F52091D7043091D804C4504E
:102E9000C83010F42F5F3F4F3F932F938CED96E097
:102EA0009F938F9384EB91E09F938F938CE996E0AF
:102EB0009F938F930E9445378DB79EB708960FB6A4
:102EC000F8949EBF0FBE8DBF8CE996E002C08CEDDA
:102ED00096E0CF910895FF920F931F93CF93DF93C6
:102EE000CDB7DEB7AB970FB6F894DEBF0FBECDBF40
:102EF000182F80FF15C024E043E057E16EE089ED14
:102F000094E00E94F6020E942931FC01228130E007
:102F10002459384F3093D8042093D7041092D60404
:102F200013FF58C08091D604813009F051C00E942F
:102F3000E01E813009F04CC062EB74E08CED96E04D
:102F40000E9475364CED56E060E080E00E94EA3366
:102F500048E960E08FE00E9401340E9434340E940E
:102F600029312BE0FC01DE01919601900D922A950A
:102F7000E1F70E945F2EFC0186818BA3CE01819632
:102F80000E941B318BA190E08459984F9093D804F4
:102F90008093D70410E04091D7045091D8041830A2
:102FA00010F44F5F5F4FFF24F394F10E0EE320E027
:102FB0006F2DCE0101960E94102FBE016F5F7F4FD3
:102FC000812F0E943F31FCE0FF1611F01F2DE3CF4F
:102FD0001092D60489ED94E00E94100461E081E033
:102FE0000E940233882331F189ED94E00E945C0352
:102FF0008C3029F08D3069F40E94A53330C081E017
:103000008093D6046EE972E00E94D61E89E59EE1A7
:103010000EC089ED94E00E945C0390E008966CE09D
:1030200070E00E9497360E94E90F8EE39DE00E94B7
:10303000933315C061E080E00E940233882329F0B9
:1030400089ED94E00E9444030AC061E082E00E949E
:103050000233882321F089ED94E00E943803AB9677
:103060000FB6F894DEBF0FBECDBFDF91CF911F9199
:103070000F91FF900895CF93C82F843049F46AECE4
:1030800074E08CED96E00E9475368CED96E04EC0B3
:10309000811103C061E273E004C0813011F568E181
:1030A00073E08CED96E00E9475368C2F0E948104AF
:1030B0001F928F938CED96E09F938F9388E491E01D
:1030C0009F938F938CE996E09F938F930E9445374F
:1030D0008DB79EB708960FB6F8949EBF0FBE8DBFF2
:1030E00023C063E173E08CED96E00E9475368C2F6F
:1030F0000E9481041F928F931F928F938CED96E014
:103100009F938F9380E591E09F938F938CE996E056
:103110009F938F930E9445378DB79EB70A960FB63F
:10312000F8949EBF0FBE8DBF8CE996E0CF910895B5
:1031300080FF08C024E04BE358E165E080EE94E0B6
:103140000E94F60280EE94E00E94100461E081E0AB
:103150000E940233882391F080EE94E00E945C0389
:10316000843011F40C94A53380EE94E00E945C034B
:103170000E94EF138DE991E10C94933361E080E0BC
:103180000E940233882321F080EE94E00C944403E3
:1031900061E082E00E940233882321F080EE94E017
:1031A0000C9438030895CF93DF9300D0CDB7DEB7EA
:1031B000AE014F5F5F4F60E170E08BEF94E00E94E3
:1031C0002E25813019F489EC8093E80489819A8155
:1031D00099270F900F90DF91CF910895CF93DF93B0
:1031E0002091E9043091EA04A4E6B0E00E94D336CD
:1031F0002AE096958795779567952A95D1F7C62FFA
:103200001F926F932AEB31E03F932F932CE936E026
:103210003F932F930E9445374CE956E060E08BE0E6
:103220000E94EA334CE761E080E00E9401344CE701
:1032300061E08FE00E9401348C2F67E00E947736B6
:10324000D82F0F900F900F900F900F900F90C0E01D
:10325000CD1739F0CF5F4DE361E08C2F0E94013430
:10326000F7CFDF91CF910895EF92FF920F931F93C5
:10327000CF93DF9300D0CDB7DEB780FF0AC081E0E7
:103280008093E8041092EA041092E90484E00E941A
:10329000C8338091E804873C09F47DC188F4843008
:1032A00009F491C030F48130D9F1823009F457C06B
:1032B000E4C1853009F4C2C0863009F421C1DDC102
:1032C0008A3C09F4ADC1A8F4883C09F489C1893C61
:1032D00009F0D3C161E272E08CED96E00E94753690
:1032E0004CED56E060E080E00E94EA3360E172E07D
:1032F00085C18C3C09F4B2C108F4A1C18D3C09F030
:10330000BCC16AED71E08CED96E00E9475364CED23
:1033100056E060E080E00E94EA3361ED71E06EC14A
:1033200068E572E08CED96E00E9475364CED56E053
:1033300060E080E00E94EA336FE472E08CED96E09A
:103340000E9475364CED56E061E080E00E94EA3361
:1033500048E961E08FE00E94013482E00DC08BE01B
:1033600095E00E943E22823051F48BE095E00E946D
:103370003E22823021F488EC8093E8047EC18130C3
:10338000B1F0863011F48AECF7CF811176C166E690
:1033900072E08CED96E00E9475368CED96E00E940E
:1033A000BA23833011F48BECE7CF813011F489EC30
:1033B000E3CF811162C18091E704811102C084E0F2
:1033C000DBCF85E0D9CF0E94D3188C01009711F490
:1033D0008CECD2CF6091E9047091EA04860F971FBC
:1033E0008130944028F040E054E0461B570B01C068
:1033F000A8018BEF94E00E9449398091E9049091F3
:10340000EA04800F911F9093EA048093E9046BE92A
:1034100071E08CED96E00E9475364CED56E060E070
:1034200080E00E94EA330E94EE188091E9049091B6
:10343000EA048115944008F420C155C06091E90464
:103440007091EA0400E014E0061B170B013111052E
:1034500010F000E110E0A8018BEF94E00E943939F0
:10346000AE014F5F5F4FB8018BEF94E00E94FE25E5
:103470008091E9049091EA04800F911F9093EA04EF
:103480008093E90489819A810817190769F08CEC07
:103490008093E804AE014F5F5F4F60E070E080E032
:1034A00090E00E94FE25E9C06CE871E08CED96E0AA
:1034B0000E9475364CED56E060E080E00E94EA33F1
:1034C0000E94EE188091E9049091EA0481159440DD
:1034D00008F4D3C0AE014F5F5F4F60E070E080E062
:1034E00090E00E94FE2586E08093E80460E070E0B2
:1034F000CB010E94FD261092EA041092E904BDC09F
:103500000E94D3187C01009709F462CF6091E9040E
:103510007091EA04860F971F8130944028F000E0F4
:1035200014E0061B170B01C08701A8018BEE94E085
:103530000E9439398091E9049091EA048E0D9F1D13
:103540009093EA048093E904EBEFF4E0ABEEB4E08F
:1035500005501B4FE017F10731F091918D919817AD
:10356000C9F38DEC09CF62E971E08CED96E00E9421
:1035700075364CED56E060E080E00E94EA330E9430
:10358000EE188091E9049091EA048115944008F4C2
:1035900074C087ECF1CE6CEA71E08CED96E00E948D
:1035A00075364CED56E060E080E00E94EA3362EA56
:1035B00071E08CED96E00E9475364CED56E061E0CE
:1035C00080E00E94EA3381E00E944E33882309F4B0
:1035D00054C08091E704811120C00E94A12E4DC0EB
:1035E0006FE372E08CED96E00E9475364CED56E08C
:1035F00060E080E00E94EA336EE272E08CED96E0DB
:103600000E9475364CED56E061E080E00E94EA339E
:1036100081E00E944E33882381F10E94A5332DC0A2
:1036200060E072E08CED96E00E9475364CED56E05D
:1036300060E080E00E94EA3361EF71E0DFCF66EE88
:1036400071E08CED96E00E9475364CED56E060E03E
:1036500080E00E94EA3366E672E0D0CF61EC71E070
:103660008CED96E00E9475364CED56E060E080E00F
:103670000E94EA3365EB71E0C1CF0F900F90DF91AC
:10368000CF911F910F91FF90EF9008958093E704E1
:1036900008956091350570913605809137050E9437
:1036A000ED2E90913805891710F48093380580919C
:1036B00038051F928F938EE791E09F938F938CE94B
:1036C00096E09F938F930E9445370F900F900F9035
:1036D0000F900F900F904CE956E061E08BE00C9456
:1036E000EA33EF92FF920F931F93CF93DF93CDB7FF
:1036F000DEB727970FB6F894DEBF0FBECDBF80FFB1
:103700001AC00E945F2EFC0190933B0580933A05FE
:10371000848180933805858180933705868190E088
:103720008459984F9093360580933505109239054A
:1037300080E00E94C8334DE261E087E00E940134DE
:103740004DE261E08AE00E94013462E873E08CE9B6
:1037500096E00E9475364CE956E060E083E00E94F6
:10376000EA336FE773E08CE996E00E9475364CE926
:1037700056E060E088E00E94EA336CE773E08CE991
:1037800096E00E9475364CE956E060E08BE00E94BE
:10379000EA334DE260E087E00E9401344DE260E0F0
:1037A0008AE00E940134809136058F93809135051F
:1037B0008F938FE691E09F938F930CE916E01F9310
:1037C0000F930E944537A80161E083E00E94EA332D
:1037D000809137051F928F939EE7E92E91E0F92E95
:1037E000FF92EF921F930F930E944537A80161E06B
:1037F00088E00E94EA33809138051F928F93FF92F0
:10380000EF921F930F930E944537A80161E08BE070
:103810000E94EA3380E00E94B2330FB6F894DEBF14
:103820000FBECDBFC29718F080E00E94C8338091D0
:103830003905813071F018F08230A9F01FC080E0A6
:103840000E94B2334997D0F04DE051E061E083E04F
:1038500013C080E00E94B233499780F04FE051E0FE
:1038600061E088E009C080E00E94B233499730F0FF
:103870004FE051E061E08BE00E94EA3361E081E0DB
:103880000E940233882309F468C00E948434809126
:1038900039058F5F80933905833010F1E0913A0547
:1038A000F0913B0587E0DE01119601900D928A951B
:1038B000E1F7809138058D83609137056E834091E3
:1038C00035055091360594E9940F9F830E94AE2EE2
:1038D0008C83CE0101960E94622E0E94A533ADC05A
:1038E000809136058F93809135058F938FE691E017
:1038F0009F938F930CE916E01F930F930E94453717
:10390000A80161E083E00E94EA33809137051F92AD
:103910008F938EE7E82E81E0F82EFF92EF921F93AF
:103920000F930E944537A80161E088E00E94EA33C6
:10393000809138051F928F93FF92EF921F930F9300
:103940000E944537A80161E08BE00E94EA330FB680
:10395000F894DEBF0FBECDBF70C062E080E00E9471
:1039600002338823A9F1809139058130B9F018F02C
:103970008230E1F062C08091350590913605833345
:1039800028E0920718F08CE697E001C0019690932A
:103990003605809335050E94491B4FC0909137052D
:1039A0009C30C0F59F5F90933705F5CF1091380597
:1039B0006091350570913605809137050E94ED2E96
:1039C000181710F081E037C0809138058F5F33C041
:1039D00062E082E00E940233882379F18091390508
:1039E000813089F018F08230C1F027C08091350510
:1039F000909136058D3637E0930718F483E398E00D
:103A0000C6CF0197C4CF80913705823010F48CE087
:103A100001C0815080933705BECF80913805823038
:103A200048F46091350570913605809137050E9404
:103A3000ED2E01C081508093380527960FB6F8947B
:103A4000DEBF0FBECDBFDF91CF911F910F91FF90D1
:103A5000EF900895EF92FF920F931F93CF93DF9310
:103A6000CDB7DEB727970FB6F894DEBF0FBECDBF38
:103A700080FF12C00E945F2E9093400580933F0507
:103A8000FC01228120933D05818180933C051092A9
:103A90003E0580E00E94C8334AE361E087E00E946F
:103AA00001346AE873E08CE996E00E9475364CE9CF
:103AB00056E060E084E00E94EA3367E873E08CE956
:103AC00096E00E9475364CE956E060E089E00E947D
:103AD000EA334AE360E087E00E94013480913D05CB
:103AE0001F928F939EE7E92E91E0F92EFF92EF92BD
:103AF0000CE916E01F930F930E944537A80161E07F
:103B000084E00E94EA3380913C051F928F93FF92DC
:103B1000EF921F930F930E944537A80161E089E05F
:103B20000E94EA3380E00E94B2330FB6F894DEBF01
:103B30000FBECDBFC29718F080E00E94C8338091BD
:103B40003E05882319F0813059F015C080E00E94AD
:103B5000B233499780F04FE051E061E084E009C062
:103B600080E00E94B233499730F04FE051E061E0CD
:103B700089E00E94EA3362E080E00E9402338823F9
:103B8000C9F080913E05882319F0813051F032C090
:103B900080913D05873118F010923D052BC08F5F55
:103BA0001DC080913C058B3318F010923C0522C05B
:103BB0008F5F1EC062E082E00E9402338823D1F052
:103BC00080913E05882319F0813059F013C080910F
:103BD0003D05811102C087E101C0815080933D0500
:103BE00009C080913C05811102C08BE301C0815066
:103BF00080933C0561E081E00E940233882309F450
:103C00004BC00E94843480913E058F5F80933E05B7
:103C10008230C8F0E0913F05F091400587E0DE0179
:103C2000119601900D928A95E1F780913D058B8365
:103C300080913C058A831982CE0101960E94622EF2
:103C40000E94A53329C080913D051F928F938EE776
:103C5000E82E81E0F82EFF92EF920CE916E01F9318
:103C60000F930E944537A80161E084E00E94EA3387
:103C700080913C051F928F93FF92EF921F930F93B9
:103C80000E944537A80161E089E00E94EA330FB63F
:103C9000F894DEBF0FBECDBF27960FB6F894DEBFF7
:103CA0000FBECDBFDF91CF911F910F91FF90EF908D
:103CB00008950F931F9380FD1092410565ED74E008
:103CC0008CE996E00E9475364CE956E061E083E0AD
:103CD0000E94EA3361ED74E08CE996E00E9475364B
:103CE0004CE956E061E08AE00E94EA3380914405A5
:103CF000882361F08130A9F480E00E94B2334997B3
:103D000080F04EE051E061E083E009C080E00E9475
:103D1000B233499730F04EE051E061E08AE00E9412
:103D2000EA3360914205709143058CED96E00E9464
:103D3000753601E415E024E040E16CE976E08CEDB5
:103D400096E00E946E034CE956E060E080E00E943D
:103D5000EA3361E081E00E940233882319F00E9477
:103D6000A53317C061E080E00E940233882339F058
:103D700080914405813051F4109244050AC061E0FD
:103D800082E00E9402338111F3CF03C081E080936F
:103D9000440580E00E94B233C29728F080E01F9172
:103DA0000F910C94C8331F910F910895823008F041
:103DB00081E0809344057093430560934205089524
:103DC000809144050895FF920F931F93CF93DF9343
:103DD000C82FD42F152F062FF72E87FF09C040E0DC
:103DE00050E0BA0187E70E94E31E823020F5CF77CA
:103DF0000E94AF028C2F0E94B4028F2D0E94B40249
:103E0000802F0E94B402812F0E94B4028D2F0E9445
:103E1000B402C03421F0C83421F081E003C085E948
:103E200001C087E80E94B402CAE00E94B30287FF83
:103E300002C0C150D1F7DF91CF911F910F91FF9038
:103E400008958DE68A95F1F700000895AF92BF922C
:103E5000CF92DF92EF92FF920F931F93CF93DF9356
:103E60001F92CDB7DEB7D82EC92E790180914705B4
:103E700083FD07C029E0440F551F661F771F2A9551
:103E8000D1F781E50E94E31E882311F081E037C05D
:103E900090E4A92E9CE9B92E0E94B3028F3F39F419
:103EA00081E0A81AB108A114B104B1F7EFCF8E3F99
:103EB00069F782E0A82EBA2CA01AB10AAE18BF0882
:103EC000E114F10419F4ED2CFC2C06C00E94B3029D
:103ED000E1E0EE1AF108F4CF0E94B302F7018193FA
:103EE0007F010150110901151105B1F70E94B302BC
:103EF000F1E0AF1AB108A114B104C1F780E08983E1
:103F00000E94B20289810F90DF91CF911F910F9192
:103F1000FF90EF90DF90CF90BF90AF9008950F93F8
:103F20001F93CF93DF930097E1F08A01EC01080F14
:103F3000191F0C171D0709F461C080914505909168
:103F40004605892B09F45AC089910E94B4028091D8
:103F50004505909146050197909346058093450548
:103F6000E8CF4115510561057105E9F080914705DC
:103F700083FD07C039E0440F551F661F771F3A9530
:103F8000D1F788E50E94E31E81113AC08FEF0E94AD
:103F9000B4028EEF0E94B40280E092E09093460556
:103FA000809345052BC0C0914505D0914605CE3F75
:103FB0008FEFD80729F080E00E94B4022197F7CF55
:103FC0000E94B3028F71853011F011E012C0C8E871
:103FD000D3E10E94B3028F3F41F02097B1F38DE609
:103FE0008A95F1F700002197F4CF11E0CD2B09F06D
:103FF00010E00E94B2020E94B30203C010E001C0B0
:1040000011E0812FDF91CF911F910F910895EF92D1
:10401000FF920F931F93CF93DF9300D000D01F9296
:10402000CDB7DEB780914705882349F0519B07C083
:1040300040E050E0BA0180E090E00E948F1F0E94B3
:10404000A90284E69DE69A95F1F700008150D1F728
:104050001AE00E94B2021150E1F740E050E0BA01CC
:1040600080E40E94E31E813009F063C04AEA51E017
:1040700060E070E088E40E94E31E813069F57E0113
:10408000E5E0EE0EF11C8E010F5F1F4F0E94B302A0
:10409000F80181938F01EE15FF05C1F78B81813007
:1040A00009F047C08C818A3A09F043C000E117E269
:1040B00040E050E060E070E489EE0E94E31E882357
:1040C00009F441C0FDE6FA95F1F70000015011092D
:1040D0000115110569F72DC040E050E0BA0189EEE5
:1040E0000E94E31E823020F452E0F52E99EE03C0C8
:1040F000FF24F39491E400E117E240E050E0BA01BC
:10410000892F9D830E94E31E9D81882351F0FDE647
:10411000FA95F1F70000015011090115110569F731
:1041200008C040E052E060E070E080E50E94E31EDD
:104130008111F12CF09247050E94B20281E0FF202C
:10414000F1F080E01CC040E050E0BA018AE70E9434
:10415000E31E8111EECF8E010F5F1F4F0E94B3024D
:10416000F80181938F01EE15FF05C1F7898186FF64
:1041700003C06CE0F62EDECF44E0F42EDBCF0F90D0
:104180000F900F900F900F90DF91CF911F910F9193
:10419000FF90EF9008950F931F939B01AC01E09166
:1041A0004805F0914905225031094109510986819C
:1041B0009781A085B1850297A109B1092817390710
:1041C0004A075B0768F4A281B0E00E94E2360289E8
:1041D000138924893589600F711F821F931F03C0C3
:1041E00060E070E0CB011F910F9108950F931F9332
:1041F000FC01A0914805B09149058C91833061F490
:10420000058910E0102F00278489082B20E030E07A
:1042100098011127002703C000E010E09801638D8A
:1042200070E0762F6627828D682B80E090E0602B0F
:10423000712B822B932B1F910F9108950F931F9336
:10424000CF93DF93EC01E0914805F0914905198285
:1042500018826C817D818E819F816130710581051D
:10426000910559F106811781208531856017710705
:104270008207930710F5611571058105910539F4E1
:104280002081233021F4668577858089918968872C
:1042900079878A879B87611571058105910519F0DA
:1042A0000E94CB2004C066857785808991896C87C0
:1042B0007D878E879F8780E001C081E0DF91CF916D
:1042C0001F910F9108950F931F93CF93DF9300D009
:1042D00000D0CDB7DEB7E0914805F09149056230D6
:1042E00071058105910508F468C006811781208554
:1042F0003185601771078207930708F05EC020813F
:10430000223019F0233011F158C09B013327220FBE
:10431000331F472F582F692F772782859385A485D0
:10432000B585480F591F6A1F7B1F02E010E0CE01C0
:1043300001960E94261F811140C06A8170E0762F8D
:1043400066278981682B80E090E03BC09B012F7736
:104350003327220F331F220F331FAB01BC01B7E0FD
:104360007695679557954795BA95D1F78285938548
:10437000A485B585480F591F6A1F7B1F04E010E014
:10438000CE0101960E94261F811117C02C816B81DE
:10439000862F90E0A0E0B0E077276627922B298156
:1043A000622B0A8110E0102F002720E030E0602B04
:1043B000712B822B932B9F7004C061E070E080E032
:1043C00090E00F900F900F900F90DF91CF911F9181
:1043D0000F910895CF92DF92EF92FF920F931F9368
:1043E000CF93DF93EC016A017B0102E010E02EEF36
:1043F00031E00E94261F811133C0898190E0982FFF
:1044000088272881822B85359A4A61F526E330E09A
:10441000B701A601CE010E94261F811109C0898122
:1044200090E0982F88272881822B86349144E1F0F0
:1044300002E010E022E530E0B701A601CE010E94C3
:10444000261F81110BC0298130E0322F222788815D
:10445000282B81E02634314441F406C081E005C0B8
:1044600083E003C082E001C080E0DF91CF911F9123
:104470000F91FF90EF90DF90CF9008954F925F9251
:104480006F927F92AF92BF92CF92DF92EF92FF92A4
:104490000F931F93CF93DF93CDB7DEB7AC970FB6D3
:1044A000F894DEBF0FBECDBF5C011092490510929B
:1044B00048050E94072080FDFBC040E050E0BA01A3
:1044C000CE0101960E94EA21813081F500E110E0E1
:1044D0002EEB31E040E050E0BA01CE0101960E949F
:1044E000261F882311F081E030C18D81811102C027
:1044F00086E02BC18C854B84512C612C712C3201B0
:1045000055244424782A8985482A8A8590E0982F62
:104510008827A0E0B0E0482A592A6A2A7B2AB301FA
:10452000A201CE0101960E94EA2103C0412C512C28
:1045300032018330C1F28111DBCF04E210E02DE0C3
:1045400030E0B301A201CE0101960E94261F811125
:10455000CACF2B8530E0322F22278A85282B40E0D6
:1045600050E02115310541055105A9F48B8D2A8DA7
:10457000422F50E060E070E033272227582B888DCF
:10458000282B898D90E0982F8827A0E0B0E0282B79
:10459000392B4A2B5B2BAC81B0E00E94E2366B01D9
:1045A0007C010B8110E0102F00278A81082B9801D5
:1045B00040E050E029A73AA74BA75CA7420E531E44
:1045C000641E751ED5011A964D925D926D927C9275
:1045D0001D97E9811296EC9312976E8170E0762F09
:1045E00066278D81682B15967C936E93149788852A
:1045F00090E0982F88274F81842BA0E0B0E00097AF
:10460000A105B105B1F44F898E8990E0A0E0B0E03A
:10461000DC0199278827B42B4C89842B4D8950E0E5
:10462000542F44278A0120E030E0802B912BA22BCD
:10463000B32B14E0769567951A95E1F78B0120E08E
:1046400030E00DA31EA32FA338A7BC01CD0129A5DF
:104650003AA54BA55CA5621B730B840B950B6C19DB
:104660007D098E099F090DA11EA12FA138A5601BF0
:10467000710B820B930B2E2F30E040E050E00E9434
:10468000AB36DA01C9010296A11DB11DF501868381
:104690009783A087B187BA01A901465F5F4061098E
:1046A00071094F3F5F4E6105710508F446C002C0B5
:1046B00082E04BC0873F9F4FA105B10508F418CF9A
:1046C00083E0D5018C938330B1F42BA18AA190E0D3
:1046D000A0E0B0E0DC0199278827B22B28A1822B2B
:1046E00049A150E0542F442760E070E0842B952BC3
:1046F000A62BB72B06C0D701C601840D951DA61D9C
:10470000B71DF50186879787A08BB18B0DA11EA1E0
:104710002FA138A5400E511E621E731E4C0C5D1C4D
:104720006E1C7F1C428A538A648A758A1182B092F9
:104730004905A092480580E008C0873F9F4FA1052A
:10474000B10508F0BDCF82E0BCCFAC960FB6F894AF
:10475000DEBF0FBECDBFDF91CF911F910F91FF90B4
:10476000EF90DF90CF90BF90AF907F906F905F9071
:104770004F9008957F928F929F92AF92BF92CF9267
:10478000DF92EF92FF920F931F93CF93DF93CDB7FA
:10479000DEB7EC970FB6F894DEBF0FBECDBFC0906A
:1047A0004805D0904905C114D10409F42DC1D601A2
:1047B00011961C929E012F5C3F4F3CA32BA39C01A2
:1047C0007901F90180812F5F3F4F8032C9F38F3229
:1047D00009F479011DA21EA21FA218A6D7018C916F
:1047E000803248F4CE0181960E941E2119828823CE
:1047F00009F4D6C01FC1A0E27A2E4E01BCE08B0E98
:10480000911CEBA1FCA1DF01CF010B96A817B90702
:1048100011F07D92FBCF90E080E028E031E0380F8E
:10482000D701A80FB11D8C918132D0F08F32C1F029
:104830008E3209F4EBC0921798F487FF05C0A82FB9
:10484000B0E0AF5BBE4F8C914FE9480F4A3108F49E
:104850008052DF01A90FB11D8C939F5F832FDECFA4
:10486000E30EF11C91E0813208F090E09387CE01D5
:1048700081960E941E218111DDC029A13AA12F70CD
:104880003327F5E0220F331FFA95E1F74DA55EA51A
:104890006FA578A900E210E0CE0101960E94261FC4
:1048A0008111BAC08981882309F4C3C02C8523FDF6
:1048B0000FC06BA17CA1FE013196CB01E815F90573
:1048C00009F46AC04191DC013D91CD014317B1F378
:1048D000A0904805B090490509A11AA10F5F1F4F8C
:1048E0000115110509F4A5C08DA59EA5AFA5B8A910
:1048F0000097A105B10509F49CC098012F703327DA
:10490000232B09F046C00196A11DB11D8DA79EA7BE
:10491000AFA7B8AB69A57AA58BA59CA56115710554
:104920008105910541F4F5018481958108171907E6
:1049300008F07FC02EC0D50112962C91422F50E076
:10494000415051099801E4E036952795EA95E1F741
:1049500042235323452BE9F40E9463216230710501
:104960008105910508F458C0F501268137814085FD
:104970005185621773078407950708F05AC069A725
:104980007AA78BA79CA70E94CB206DA77EA78FA795
:1049900098AB1AA309A371CFFB0183858823F1F19A
:1049A0008981882309F445C08C8584FD42C0CE01ED
:1049B00001960E94F620D6015E966D937D938D93AD
:1049C0009C93919728A18F8D90E0A0E0B0E0DC014E
:1049D00099278827B22B2D8D822B4E8D50E0542F96
:1049E000442760E070E0842B952BA62BB72BF601B3
:1049F000828F938FA48FB58F168A178A108E118E8F
:104A000081E0818380E016C085E014C0283009F081
:104A100027CF98E02BE022CF81E00CC024FF09C013
:104A2000CE0101960E94F6206DA37EA38FA398A7C6
:104A3000E8CE83E0EC960FB6F894DEBF0FBECDBF94
:104A4000DF91CF911F910F91FF90EF90DF90CF906A
:104A5000BF90AF909F908F907F9008954F925F92FC
:104A60006F927F928F929F92AF92BF92CF92DF927E
:104A7000EF92FF920F931F93CF93DF934C017B0133
:104A80005A01C0914805D0914905FA01118210825E
:104A9000209709F49FC0898180FF9EC08A8D9B8DDD
:104AA000AC8DBD8D4E895F89688D798D841B950B8A
:104AB000A60BB70BA70160E070E084179507A60767
:104AC000B70708F47C013401412C02E0502EE114B8
:104AD000F10409F47DC08E899F89A88DB98DAC0140
:104AE000BD01517066277727452B462B472BD1F503
:104AF000DA80DA94AC01BD0119E076956795579597
:104B000047951A95D1F7D422C1F4892B8A2B8B2B88
:104B100029F46E8D7F8D88A199A106C06AA17BA121
:104B20008CA19DA10E9463216230710581059105D0
:104B3000A0F16AA37BA38CA39DA36AA17BA18CA1F6
:104B40009DA10E94CB20611571058105910529F178
:104B5000DC01CB018D0D911DA11DB11D8EA39FA365
:104B6000A8A7B9A72E893F893170C201821B930B78
:104B700067018E159F0508F46C014EA15FA168A521
:104B800079A58114910419F480E090E001C0C3017B
:104B900086010E94261F882319F0198281E01DC01A
:104BA0008E899F89A88DB98D8C0D9D1DA11DB11D6C
:104BB0008E8B9F8BA88FB98F6C0C7D1CEC18FD0819
:104BC000F501808191818C0D9D1D918380837FCF24
:104BD00080E003C085E001C084E0DF91CF911F91A8
:104BE0000F91FF90EF90DF90CF90BF90AF909F908C
:104BF0008F907F906F905F904F9008954F925F924B
:104C00006F927F928F929F92AF92BF92CF92DF92DC
:104C1000EF92FF920F931F93CF93DF936C018B0161
:104C20005A01C0914805D0914905FA0111821082BC
:104C3000209709F4CEC0898180FFCDC080746115B2
:104C4000710579F4882349F040E050E0BA0180E032
:104C500090E00E948F1F811191C089818F7B898391
:104C6000B6C081110AC08E899F89A88DB98D882709
:104C70009E7F8E8B9F8BA88FB98F8A8D9B8DAC8DDD
:104C8000BD8D4E895F89688D798D841B950BA60B30
:104C9000B70BA80160E070E084179507A607B70777
:104CA00008F48C01812C32E0932E43C0AB01BC018F
:104CB0004F0D511D611D711D4EA35FA368A779A7FC
:104CC00080E090E00E948F1F811158C0898180642C
:104CD00089838E899F8991709401281B390B7801F3
:104CE0002017310708F479012701612C712CB301D9
:104CF000A201C6010E948F1F811140C08E899F8929
:104D0000A88DB98D840D951DA61DB71D8E8B9F8B0B
:104D1000A88FB98FCE0CDF1C0E191F09F501208159
:104D200031812E0D3F1D318320839170892B09F431
:104D300041C00115110509F44AC08E899F89A88DCB
:104D4000B98D9C013170232B21F6FA80FA94AC01C5
:104D5000BD0129E076956795579547952A95D1F736
:104D6000F42279F06AA17BA18CA19DA10E94CB20A5
:104D7000611571058105910509F098CF198281E0CF
:104D80002BC0892B8A2B8B2B29F46E8D7F8D88A1CC
:104D900099A106C06AA17BA18CA19DA10E9463215B
:104DA000623071058105910548F36AA37BA38CA34A
:104DB0009DA3D8CF40E050E0BA0180E090E00E948F
:104DC0008F1F8111DBCF89818F7B8983B2CF80E0F8
:104DD00003C085E001C084E0DF91CF911F910F9166
:104DE000FF90EF90DF90CF90BF90AF909F908F900B
:104DF0007F906F905F904F9008952F923F924F92C7
:104E00005F926F927F928F929F92AF92BF92CF925A
:104E1000DF92EF92FF920F931F93CF93DF9300D017
:104E200000D0CDB7DEB79B012090480530904905F2
:104E30002114310409F4EDC0D10111964C91119760
:104E400040FFE9C05A964D915D916D917C915D97BF
:104E500069017C014C155D056E057F0510F46A0142
:104E60007B01F10146885788608C718C168A178AFD
:104E7000108E118EC114D104E104F10409F4CDC0E7
:104E80008280912CA12CB12C59E0880C991CAA1C71
:104E9000BB1C5A95D1F74114510461047104D9F136
:104EA000B1E04B1A510861087108C701B6016150A1
:104EB000710981099109A50194010E94AB362983EA
:104EC0003A834B835C83C301B201A50194010E9424
:104ED000AB3689819A81AB81BC8182179307A40785
:104EE000B507C8F088279927DC0188199909AA090C
:104EF000BB0984219521A621B721F101868B978BCF
:104F0000A08FB18FC81AD90AEA0AFB0A62A173A15D
:104F100084A195A13AC0D1015E966D917D918D914C
:104F20009C919197F10162A373A384A395A32DC0D3
:104F30000E946321623071058105910560F1D10104
:104F400016960D911D912D913C911997601771073F
:104F50008207930700F5D10192966D937D938D930F
:104F60009C93959756960D911D912D913C91599733
:104F7000080D191D2A1D3B1DF101068B178B208F73
:104F8000318FC818D908EA08FB088C149D04AE04B8
:104F9000BF0470F203C0F10111821AC0D10156960C
:104FA0008D909D90AD90BC9059978C0C9D1CAE1C23
:104FB000BF1CF101868A978AA08EB18E0E94CB20F9
:104FC000611571058105910529F4D10111961C9295
:104FD00081E024C07501640149E0F694E794D79418
:104FE000C7944A95D1F7F101028110E001501109EF
:104FF000222717FD2095322FC022D122E222F32250
:10500000C60ED71EE81EF91EC6A2D7A2E0A6F1A6BC
:1050100004C085E003C084E001C080E00F900F90E1
:105020000F900F90DF91CF911F910F91FF90EF9014
:10503000DF90CF90BF90AF909F908F907F906F90B8
:105040005F904F903F902F90089510924D051092D1
:105050004C0510924B0510924A05389A409A5A987E
:105060005298E1E8F0E0808184608083EFE6F0E030
:1050700080818160808310924E0510924F051092BE
:10508000500510925105109252051092530510923E
:1050900054051092550508951092600510925F0511
:1050A00010925705109258051092590510925A0502
:1050B00010925B0510925C0510925D0510925E05E2
:1050C000109256051092850010928400E9E6F0E0F7
:1050D000808181608083808182608083E89A4098AB
:1050E0000895409AE898089588B180958170089550
:1050F00080916005089580915605089589B1847066
:105100000895F89420914E0530914F054091500537
:10511000509151056091520570915305809154054D
:10512000909155057894089580915F0508951092A7
:105130005F05089590934D0580934C0508959093D5
:105140004B0580934A0508958F929F92BF92CF920C
:10515000DF92EF92FF920F931F93CF93DF931F92F3
:10516000CDB7DEB7E42FD52E7B01B82EC92E48016E
:1051700020FF02C080E032C1307820E040E050E003
:1051800060E070E080E090E00FE00E940837D4011A
:105190002C9320E030E04E2F417050E060E070E052
:1051A00080E090E000E10E94083711962C9311975F
:1051B00020E030E04E2F427050E060E070E080E090
:1051C00090E001E10E94083712962C93129720E09C
:1051D00030E04E2F487050E060E070E080E090E0FA
:1051E00003E10E94083713962C9320E030E04E2F05
:1051F000407150E060E070E080E090E004E10E94E7
:105200000837222309F4B6CF4E2F407E20E030E04D
:105210005D2D5F7060E070E080E090E005E10E944D
:105220000837822F29830E94792EF40185832981F2
:105230008C3308F09FCF822F0E948C2EE82F20E025
:1052400030E040E05D2D507160E070E080E090E083
:105250000CE10E940837E2138DCF5D2D507E20E0D7
:1052600030E040E06E2D677070E080E090E00DE18E
:105270000E940837822F29830E94792ED401169626
:105280008C9329818C3308F075CF822F0E948C2E4D
:10529000E82F20E030E040E050E06E2D687070E0D4
:1052A00080E090E003E20E940837E21363CF6E2DA6
:1052B000607F20E030E040E050E07F2D737080E0C0
:1052C00090E004E20E940837822F29830E94792E01
:1052D000F40180872981822F0E948C2EE82E20E005
:1052E00030E040E050E060E07F2D7C7180E090E0B5
:1052F0000AE20E940837822F29830E94792ED40166
:1053000017968C932981822F0E948C2ED82EF4011F
:1053100027812150273008F02DCF7F2D707E20E08F
:1053200030E040E050E060E08B2D837090E00DE2D3
:105330000E940837822F29830E94792ED401199662
:105340008C932981822F0E948C2E182FF4012185A5
:1053500021502C3008F00ECF20E030E040E050E04B
:1053600060E070E08B2D8C7F9C2D937002E30E9497
:105370000837822F29830E94792E8C59D4011A96DE
:105380008C932981822F0E948C2EB82EF401628585
:10539000683C08F0EFCEF084FF2009F4EBCE70E01B
:1053A0006459784F81850E94ED2E8F1508F4E2CE66
:1053B000ED2DEE25E127EB2520E030E040E050E048
:1053C00060E070E080E09C2D94700AE30E94083752
:1053D000E213D0CED40114961C9281E00F90DF919D
:1053E000CF911F910F91FF90EF90DF90CF90BF90E2
:1053F0009F908F9008951F920F920FB60F921124D5
:10540000FF920F931F932F933F934F935F936F934D
:105410007F938F939F93AF93BF93CF93DF93EF933C
:10542000FF9380918400909185002091690020FF76
:1054300038C0209160052223C9F0935281309F40EB
:1054400008F4CFC01092600580915F058F5F809354
:105450005F0580914A0590914B05892B09F4C1C0E5
:10546000E0914A05F0914B050995BBC09B548130F2
:10547000934208F0B6C081E0809360051092560513
:1054800010925705109258051092590510925A051E
:1054900010925B0510925C0510925D0510925E05FE
:1054A000A0C09C0133502130344008F44FC09850C4
:1054B00081309440A8F5F090570510915805D0918F
:1054C0005905C0915A05B0915B05A0915C05F0911A
:1054D0005D05E0915E050091560521E030E040E079
:1054E00050E060E070E080E090E00E94ED362F290F
:1054F000312B4D2B5C2B6B2B7A2BF82BE92B20932C
:105500005705309358054093590550935A056093B9
:105510005B0570935C05F0935D05E0935E0516C036
:10552000909160051092600580915F058F5F809378
:105530005F05992359F080914A0590914B05892B7D
:1055400029F0E0914A05F0914B050995809160059D
:10555000882309F446C0809156058F5F80935605D5
:10556000809156058B33E8F11092600570915705D4
:10557000609158055091590540915A0530915B054D
:1055800020915C0590915D0580915E0570934E05BC
:1055900060934F0550935005409351053093520549
:1055A00020935305909354058093550580914C05A5
:1055B00090914D05892BA9F0E0914C05F0914D0596
:1055C00020914E0530914F05409150055091510565
:1055D0006091520570915305809154059091550545
:1055E000099510928500109284008091690091E0E5
:1055F000892780936900FF91EF91DF91CF91BF914F
:10560000AF919F918F917F916F915F914F913F915A
:105610002F911F910F91FF900F900FBE0F901F9031
:1056200018951F920F920FB60F9211248F938091AD
:105630005F058F5F80935F05109260058F910F90DB
:105640000FBE0F901F9018951F93CF93DF93EC011F
:1056500080ED0E949E2C80E00E94942C81ED0E949F
:105660009E2C0E94BB2C0E94792E88830E94BB2C0A
:105670000E94792E89830E94BB2C182F16FF07C029
:105680008F710E94792E15FF05C0845F03C08F7350
:105690000E94792E8A830E94BB2C0E94792E8B83D4
:1056A0000E94BB2C0E94792E8C830E94BB2C182F49
:1056B0008F710E94792E8D830E94C52C0E94792EB5
:1056C00017FD8C598E83DF91CF911F910C948C2CF8
:1056D000CF93DF93EC0180ED0E949E2C80E00E942E
:1056E000942C88810E94812E0E94942C89810E9492
:1056F000812E0E94942C8A810E94812E0E94942CDB
:105700008B810E94812E0E94942C8C810E94812E7C
:105710000E94942C8D810E94812E9E81943610F0DF
:1057200090E801C090E0892B0E94942C8E818436F1
:1057300010F094E601C090E0891B0E94812E0E9427
:10574000942CDF91CF910C948C2CCF93DF931F92EC
:10575000CDB7DEB780ED0E949E2C81E10E94942C93
:1057600081ED0E949E2C0E94C52C89830E948C2C66
:1057700089810F90DF91CF91089580FF02C0289A10
:1057800001C0289881FF02C05F9A01C05F9882FF24
:1057900002C05E9A01C05E9883FF02C05D9A0895C0
:1057A0005D980895CF93C82F00C000C0299A8295B4
:1057B0008F700E94BD2B00C000C0299800C000C09F
:1057C000299A8C2F0E94BD2B00C000C0299886E327
:1057D0008A95F1F700C0CF9108952A980C94D22BA6
:1057E000229A219A209A579A569A559A882331F0EC
:1057F0008FEF9FE20197F1F700C000002A982998E7
:10580000299A83E00E94BD2B29988FEF9FE0019792
:10581000F1F700C00000299A83E00E94BD2B29986F
:105820009FEA9A95F1F7299A83E00E94BD2B299867
:105830008FEA8A95F1F7299A82E00E94BD2B299878
:1058400083E393E00197F1F788E20E94ED2B88E073
:105850000E94ED2B81E00E94ED2B86E696E00197F9
:10586000F1F7000086E00E94ED2B8CE00C94ED2B0C
:1058700082E00E94ED2B86E696E00197F1F70000AA
:10588000089581E00E94ED2B86E696E00197F1F7FE
:105890000000089590E4699F800D112480680C94A5
:1058A000ED2B2A9A0C94D22BCF93DF93EC018991A4
:1058B000882319F00E94512CFACFDF91CF910895DF
:1058C000EF92FF921F93CF93DF9300D0CDB7DEB757
:1058D000880F880F880F805C69837A830E94ED2B84
:1058E0006981E62E7A81F72E18E0F70181917F0118
:1058F0000E94512C1150C9F70F900F90DF91CF915A
:105900001F91FF90EF9008951092B800E9EBF0E03E
:1059100080818C7F8083089584E98093BC0080918E
:10592000BC0084FDFCCF08958093BB0084E8809385
:10593000BC008091BC0087FFFCCF089594EA90934F
:10594000BC009091BC0097FFFCCF0E94942C9091DA
:10595000B900987F81E0983121F0903411F080E017
:1059600008950895CF93C82F8C2F0E949E2C8823D2
:10597000D9F3CF91089584EC8093BC008091BC0052
:1059800087FFFCCF8091BB00089584E88093BC0022
:105990008091BC0087FFFCCF8091BB000895E1E0BF
:1059A000E0937A0520937205309373054093740554
:1059B000509375056093760570937705809378050D
:1059C00090937905089510927A05109272051092BD
:1059D0007305109274051092750510927605109259
:1059E0007705109278051092790510927105109242
:1059F000700510926F0510926E0510926705109257
:105A000066051092650581E080936205109261053C
:105A10008AE080937B058CE795E00E94242B0E940E
:105A2000293190938405809383058FEC9CE20C943C
:105A30009A2880917B058F5F80937B05809171050B
:105A4000882379F080917105815080937105809150
:105A50007105811106C00E947428811102C00C9446
:105A60004C2808950F931F93CF93DF93CDB7DEB7E4
:105A70002B970FB6F894DEBF0FBECDBF80917A058D
:105A8000882379F110927A05F8942091720530916B
:105A9000730540917405509175056091760570917C
:105AA0007705809178059091790578948E010F5F44
:105AB0001F4F0E94A4288823A1F00E947128CE01C4
:105AC00005960E94682B87E0FE013596A8E6B5E0B2
:105AD00001900D928A95E1F781E080936F058093A4
